:100000000C9438030C9455030C9455030C9455032D
:100010000C9455030C9455030C9455030C949503C0
:100020000C9455030C9455030C9455030C94140E26
:100030000C9455030C9455030C9455030C945503E0
:100040000C94970D0C9455030C94A0100C94F6107E
:100050000C9455030C9455030C9455030C945503C0
:100060000C9455030C9455033026362639263C262D
:1000700041264B265326BF26BF26BF265B265D267C
:1000800066266F267726BF26BF26BF26BF26BF2639
:100090007F26BF268926912694269D26A626AC2655
:1000A0004D115011551158115B115E116111641100
:1000B00067116A116D11791179117911791179111D
:1000C0007911791179117311701176118C1CA21CA0
:1000D000C01CA21CC71CEB1CD01CD61CDE1C0D0AAD
:1000E00053444C7320302E310D0A000D0A003D00A0
:1000F000244E005D0D0A005B302E313A005D0D0A82
:10010000005B544C4F3A005D0D0A002C005B4739F0
:10011000323A005D0D0A002C003A003330003238CC
:10012000005B47005D0D0A00204600205400204778
:10013000005B473830005B4733005B4732005B476A
:1001400031005B47300024242028766965772073CE
:10015000657474696E6773290D0A242320287669F3
:100160006577202320706172616D657465727329F3
:100170000D0A2447202876696577207061727365BF
:1001800072207374617465290D0A244920287669E8
:100190006577206275696C6420696E666F290D0A47
:1001A000244E2028766965772073746172747570A7
:1001B00020626C6F636B73290D0A24783D76616C45
:1001C00075652028736176652073657474696E6740
:1001D000290D0A244E783D6C696E6520287361767E
:1001E00065207374617274757020626C6F636B2923
:1001F0000D0A24432028636865636B2067636F647E
:1002000065206D6F6465290D0A245820286B696C80
:100210006C20616C61726D206C6F636B290D0A7EBE
:1002200020286379636C65207374617274290D0AE8
:100230002120286665656420686F6C64290D0A3F7B
:10024000202863757272656E74207374617475739F
:10025000290D0A6374726C2D782028726573657499
:10026000290D0A005D0D0A002C005B5052423A0035
:100270000D0A00496E76616C69642067636F64657E
:100280002049443A00556E646566696E656420666F
:10029000656564207261746500556E737570706F6A
:1002A0007274656420636F6D6D616E64004D6F6480
:1002B000616C2067726F75702076696F6C6174690C
:1002C0006F6E004C696E65206F766572666C6F7735
:1002D00000486F6D696E67206E6F7420656E616295
:1002E0006C656400416C61726D206C6F636B004ED5
:1002F0006F742069646C6500454550524F4D207203
:10030000656164206661696C2E205573696E672093
:1003100064656661756C74730056616C7565203C2C
:10032000203320757365630053657474696E6720AC
:1003300064697361626C65640056616C7565203C2C
:10034000203000496E76616C696420737461746555
:100350006D656E7400426164206E756D6265722019
:10036000666F726D617400457870656374656420B2
:10037000636F6D6D616E64206C6574746572006589
:1003800072726F723A20005D0D0A004469736162F7
:100390006C656400456E61626C65640043617574F0
:1003A000696F6E3A20556E6C6F636B65640027242D
:1003B00048277C2724582720746F20756E6C6F6344
:1003C0006B00526573657420746F20636F6E74697F
:1003D0006E7565005B000D0A0050726F62652066E5
:1003E00061696C0041626F727420647572696E6736
:1003F000206379636C6500486172642F736F667463
:10040000206C696D697400414C41524D3A20003EA8
:100410000D0A002C52583A002C4275663A002C0006
:100420002C57506F733A002C002C4D506F733A00CC
:100430003C436865636B003C416C61726D003C48F5
:100440006F6D65003C486F6C64003C52756E003CFB
:100450005175657565003C49646C6500290D0A009D
:10046000206D61782074726176656C2C20646567FC
:100470000020616363656C2C206465672F7365637E
:100480005E3200206D617820726174652C20646595
:10049000672F736563002C20737465702F64656724
:1004A000007A00790078002028003D0024002028F0
:1004B000686F6D696E672070756C6C2D6F66662C49
:1004C000206D6D290D0A00202868617264206C6916
:1004D0006D6974732C20626F6F6C290D0A2432329F
:1004E0003D002028736F6674206C696D6974732CED
:1004F00020626F6F6C290D0A2432313D0020286183
:1005000075746F2073746172742C20626F6F6C2924
:100510000D0A2432303D0020287265706F727420FD
:10052000696E636865732C20626F6F6C290D0A24F5
:1005300031343D00202861726320746F6C657261F4
:100540006E63652C20646567290D0A2431333D00F4
:1005500020286A756E6374696F6E206465766961C0
:1005600074696F6E2C20646567290D0A2431323D51
:1005700000290D0A2431313D0020287374617475FF
:1005800073207265706F7274206D61736B3A002016
:100590002870726F62652070696E20696E76657270
:1005A000742C20626F6F6C290D0A2431303D0020BD
:1005B000286C696D69742070696E7320696E766548
:1005C00072742C20626F6F6C290D0A24363D002056
:1005D000287374657020656E61626C6520696E7643
:1005E0006572742C20626F6F6C290D0A24353D00F2
:1005F000290D0A24343D00202864697220706F722E
:100600007420696E76657274206D61736B3A00298F
:100610000D0A24333D0020287374657020706F72BA
:100620007420696E76657274206D61736B3A002078
:1006300028737465702069646C652064656C6179E9
:100640002C206D736563290D0A24323D0020287328
:100650007465702070756C73652C207573656329E3
:100660000D0A24313D0024303D006F6B0D0A00005F
:1006700011241FBECFEFD8E0DEBFCDBF11E0A0E058
:10068000B1E0E2EEF7E502C005900D92A830B107A7
:10069000D9F726E0A8E0B1E001C01D92AD3DB20758
:1006A000E1F70E948B220C94EF2B0C940000843015
:1006B000D0F490E0FC01E050FF4F2081222399F01C
:1006C000FC01E45FFE4F613029F485B1282B25B988
:1006D0006083089535B12095232325B91082FC014C
:1006E000E85FFE4F1082089584B18E6184B985B1B0
:1006F000817E85B9F8941092B20083EF8093B300A5
:1007000082E08093B00086E08093B100E0E7F0E003
:1007100080818260808378940895F999FECF92BD9C
:1007200081BD81E08FBB80B508951F920F920FB6F7
:100730000F9211242F933F934F935F936F937F9367
:100740008F939F93AF93BF93CF93DF93EF93FF93D9
:10075000809110018F5F80931001811119C0C0E05A
:10076000D0E08C2FFE01E45FFE4F9081FE01E85F38
:10077000FE4F992319F090819F5F908390819F3F56
:1007800019F460E00E9457032196C430D10549F75F
:10079000FF91EF91DF91CF91BF91AF919F918F9199
:1007A0007F916F915F914F913F912F910F900FBE6D
:1007B0000F901F901895CF93DF939091F60592308C
:1007C00069F0D62FC82F0E94B8110E94FB156D2F1B
:1007D0008FEF8C0FDF91CF910C945703DF91CF9166
:1007E00008958F929F92AF92BF92EF92FF920F93D4
:1007F0001F93CF93DF93C9EFD5E088EAE82E85E019
:10080000F82E09E216E06991799189919991F701A1
:1008100081909190A190B1907F010E947829A501CB
:1008200094010E94CE28F801619371938193919372
:100830008F01F6E0C530DF0731F7DF91CF911F91CF
:100840000F91FF90EF90BF90AF909F908F90089581
:100850009F92AF92BF92CF92DF92EF92FF920F934F
:100860001F93CF93DF935B018A017C01E40EF51E99
:10087000EC01912C6B01C81AD90AC6018C0F9D1F7F
:10088000CE15DF0589F00E948D03911008C0292D37
:10089000990C330B232F221F2227221F01C021E096
:1008A000982E920E8993E9CFC501800F911F0E9467
:1008B0008D0321E030E0981611F020E030E0C9010E
:1008C000DF91CF911F910F91FF90EF90DF90CF902C
:1008D000BF90AF909F900895F894F999FECF92BD84
:1008E00081BD81E08FBB80B58627482F082E000C84
:1008F000550B262F30E024233523232B39F06F3F6F
:1009000019F060BD84E006C084E104C0882321F0B2
:1009100060BD84E28FBBF99A789408959F92AF925C
:10092000BF92CF92DF92EF92FF920F931F93CF93DC
:10093000DF935C018A017B01E40EF51EEB01912C33
:100940006C01C61AD70ACE018C0D9D1DCE15DF0590
:1009500089F0911008C0292D990C330B232F221FE9
:100960002227221F01C021E06991922E960E0E943B
:100970006C04E9CF692DC501800F911FDF91CF91E4
:100980001F910F91FF90EF90DF90CF90BF90AF90AD
:100990009F900C946C04CF93DF93C0918805D09105
:1009A00089052097B9F081E080935E056091740518
:1009B0007091750580917605909177059B01AC014A
:1009C0000E94B82A698B7A8B8B8B9C8B109289053D
:1009D00010928805DF91CF9108952F923F924F9208
:1009E0005F926F927F928F929F92AF92BF92CF92BF
:1009F000DF92EF92FF920F931F93CF93DF93CDB7C8
:100A0000DEB7CA54D1090FB6F894DEBF0FBECDBF12
:100A1000209107052EAF309184053B8340918505D9
:100A20004C830091860510918705509174055B8B6E
:100A3000809175058C8B909176059D8BA0917705A3
:100A4000AE8BE0907005F0907105B0917205BA8799
:100A5000E0917305ED87F091F6052296FFAF22979E
:100A60002091E2042FA3309177043FAF40917504A9
:100A700021964FAF219780918805909189059A8B97
:100A8000898B90915F059AAFA0916005ABAFB09153
:100A90006105BCAFE0916205EDAF20916305309137
:100AA000640540916505509166052BA33CA34DA3B9
:100AB0005EA38091670590916805A0916905B0914A
:100AC0006A058EAB9FABA8AFB9AF20916B05309193
:100AD0006C0540916D0550916E052AAB3BAB4CAB5C
:100AE0005DAB30917C053F8B40917D05488F5091E7
:100AF0007E05598F80917F058A8F9091800599831B
:100B0000A0918105AA833090820520908305B09141
:100B10007604BB8FE0917805EC8FF0917905FD8F1D
:100B200020917A052E8F30917B053F8F8091E104D3
:100B30005FA1851709F4EEC649895A89452B09F04A
:100B40003DC25FAD8B8D581709F434C7A82EB12C68
:100B5000A9E2AA9DC001AB9D900D1124FC01ED56A8
:100B6000FE4FFA8BE98B80915E05882319F0109275
:100B70005E05BAC080915D058F5F853019F0809366
:100B80005D0502C010925D05E0915D0521E12E9F9B
:100B9000F0011124E85FFA4F89E28A9DA0018B9D44
:100BA000500D11244D565E4F4A01DA018C9180831D
:100BB00011964D915D916D917C911497DB01CA0165
:100BC00023E0880F991FAA1FBB1F2A95D1F78183A5
:100BD0009283A383B483D40115964D915D916D9159
:100BE0007C911897DB01CA0133E0880F991FAA1F77
:100BF000BB1F3A95D1F785839683A783B087D4012D
:100C000019964D915D916D917C911C97DB01CA0104
:100C100043E0880F991FAA1FBB1F4A95D1F7818710
:100C20009287A387B487D4011D966D917D918D9194
:100C30009C9150976B017C0153E0CC0CDD1CEE1CA9
:100C4000FF1C5A95D1F7C586D686E786F08A0E94A2
:100C500076296AAF7BAF8CAF9DAFF40125A136A199
:100C600047A150A50E94CE286BA37CA38DA39EA371
:100C70009B01AC0160E070E080EA9FE30E94CE2817
:100C80006EAB7FAB88AF99AF2296FFAD2297F03263
:100C9000D1F42F89388D498D5A8D6F89788D898D42
:100CA0009A8D0E94B82AD40151966D937D938D93AD
:100CB0009C935497BF89BB8BE88DEC8BF98DFD8B92
:100CC0002A8D2E8B0DC0D40151966D917D918D9101
:100CD0009C9154970E944F2B6B8B7C8B8D8B9E8BA2
:100CE0001AAA1BAA1CAA1DAA29E22A9DF0012B9D63
:100CF000F00D1124ED56FE4FFE87ED8781A192A1E4
:100D0000A3A1B4A18D839E83AF83B8879C01AD015D
:100D100060E070E080E09FE30E94CE286B017C01E0
:100D20002296BFAD2297B03209F040C0E2E0E093D6
:100D30006F05AD85BE8595964D905D906D907C90CC
:100D4000989751968D909D90AD90BC905497A50129
:100D500094010E94B82A9B01AC01C301B2010E9418
:100D600045287B018A879D8720E030E0A9010E9409
:100D7000C92887FF28C12D813E814F815885CA012E
:100D8000B9010E944628A30192010E94B82A9B0142
:100D9000AC01C501B4010E9445280E944F2B6F8B06
:100DA000788F898F9A8F3B862C8603C110926F05AE
:100DB000ED85FE85F5A1F983AD85BE859696BC913E
:100DC000BA83ED85FE85F7A1FB87AD85BE85989634
:100DD000BC91BC87EB8DEF5FE23109F4E0E0FFAD41
:100DE000FE1789F029E22E9FF0011124ED56FE4FE7
:100DF00061897289838994890E944F2B6F8B788FC8
:100E0000898F9A8F04C01F8A188E198E1A8E2F8987
:100E1000388D498D5A8D6F89788D898D9A8D0E9474
:100E2000B82A2B013C0189E28A9DA0018B9D500DBF
:100E300011244D565E4F59A348A3DA0151962D91C6
:100E40003D914D915C9154972D873E874F87588BEC
:100E5000A30192016D857E858F8598890E94452822
:100E6000A70196010E94B82A29813A814B855C85A9
:100E70000E94462820E030E040E05FE30E94B82A6C
:100E8000362E272E89879A8720E030E0A9010E941C
:100E9000802A18160CF0A0C0232D322D49855A85C2
:100EA00069817A818B859C850E94802A18160CF0B6
:100EB00075C0E8A1F9A1858C968CA78CB0A0A30180
:100EC0009201C501B4010E944528A70196010E9424
:100ED000B82A162F7C838AA398A3262F372FAC011C
:100EE000632D722D89859A850E94802A1816ACF58B
:100EF000C501B4010E944F2B6C8F7D8F8E8F9F8F09
:100F0000A50194016D857E858F8598890E94C928E9
:100F1000811107C0F1E0F0936F051B830AA118A1AE
:100F200048C02D853E854F855889C501B4010E9472
:100F30004528A70196010E94B82A9B01AC0169814E
:100F40007A818B859C850E9445281B830AA118A164
:100F500069837A838B879C872CC02D813E814F814A
:100F60005885CA01B9010E944628232D322D498592
:100F70005A850E94B82AA30192010E9446280E9425
:100F80004F2B6C8F7D8F8E8F9F8F3B822C8209859C
:100F90001A8539822A820B871C870BC022E0209396
:100FA0006F053B893C8F4C894D8F5D895E8F8E89A3
:100FB0008F8F1D8219861A861D861EC0ED82F986C6
:100FC0003B862C8619C0ED82F9863B862C861F8ACB
:100FD000188E198E1A8E10C09F899C8FA88DAD8F88
:100FE000B98DBE8FEA8DEF8F1D8219861A861D86F8
:100FF00019821A821B861C863EAD232F30E039A34E
:1010000028A346E0429FF001439FF00D1124ED51CB
:10101000FB4F80915D058283A989BA899596BC9121
:10102000B8ABE989FA89F6A1F9ABA989BA8997968B
:10103000BC912396BFAF2397E989FA89F0A524963E
:10104000FFAF24972EA93FA948AD59AD68A979A94A
:101050008B2F9F2F0E9445286CA77DA78EA79FA747
:1010600020E030E0A9010E94C92887FF04C01CA627
:101070001DA61EA61FA620916F052AA32B813C81C9
:10108000A80169817A818B859C850E94C92881117C
:1010900005C032E025963FAF259704C041E0259674
:1010A0004FAF259728A859A92B965FAF2B9723966A
:1010B0008FAD23972A968FAF2A9724963FAC24971B
:1010C0008EE3C82E83ECD82E8EE2E82E89E3F82E2C
:1010D00018A619A61AA61BA6460157019AA199237C
:1010E00021F0913009F485C0C2C0A989BA899196CE
:1010F0002D913D914D915C919497C701B6010E944D
:10110000B82A2B013C0120E030E040E05FE30E9480
:10111000B82A2B893C894D895E890E944628A701FF
:1011200096010E94B82A9B01AC01622D2B967FADDF
:101130002B972A968FAD2A97932D0E944528262E0D
:101140002B967FAF2B972A968FAF2A97392E29811E
:101150003A814B855C850E94C92887FF3DC0298163
:101160003A814B855C8568A979A923968FAD239731
:1011700024969FAD24970E9445289B01AC010E94B4
:1011800046286B017C012B893C894D895E896C8DD9
:101190007D8D8E8D9F8D0E9446289B01AC01C701DD
:1011A000B6010E94CE286B017C012596BFAD259724
:1011B000BAA3EC8DEB8BFD8DFC8B2E8D2D8B3F8D93
:1011C0003E8B29804A812B964FAF2B975B852A96C1
:1011D0005FAF2A973C84EDC0A30192016B897C89A3
:1011E0008D899E890E9446286B8B7C8B8D8B9E8B74
:1011F000E0C02C8D3D8D4E8D5F8DC701B6010E94E4
:10120000B82A9B01AC01622D2B967FAD2B972A96B5
:101210008FAD2A97932D0E9445282B013C012B81ED
:101220003C81A8010E94C92887FFBBC02B813C815B
:10123000A801622D2B967FAD2B972A968FAD2A970A
:10124000932D0E9445282C8D3D8D4E8D5F8D0E94E3
:10125000CE286B017C012B808C812B968FAF2B9736
:101260002A960FAF2A97312E92E09AA3A2C0A9899D
:10127000BA8991962D913D914D915C919497C701BA
:10128000B6010E94B82A2B013C012B893C894D896B
:101290005E890E94C92887FF53C020E030E040E00B
:1012A0005FE3C301B2010E94B82A9B01AC016B89C4
:1012B0007C898D899E890E944528A70196010E94FC
:1012C000B82A9B01AC01622D2B967FAD2B972A96F5
:1012D0008FAD2A97932D0E94452826966FAF2697AB
:1012E00027967FAF279728968FAF289729969FAF8D
:1012F00029972D8139854A855D850E94802A181697
:10130000FCF4A30192016B897C898D899E890E94DE
:1013100045286B8B7C8B8D8B9E8B26962FAC2697CE
:101320002796BFAD27972B96BFAF2B972896EFAD8B
:1013300028972A96EFAF2A9729963FAC299739C06C
:101340002D8139854A855D85622D2B967FAD2B9742
:101350002A968FAD2A97932D0E9445289B01AC01B8
:101360000E9446286B017C012B893C894D895E894E
:101370006F89788D898D9A8D0E9446289B01AC01DA
:10138000C701B6010E94CE286B017C012D80F98532
:101390002B96FFAF2B972A852A962FAF2A973D844D
:1013A00008C0242C2B965FAE2B972A966FAE2A97F7
:1013B000372CA701960168A579A58AA59BA50E944F
:1013C000462868A779A78AA79BA79B01AC01C501FE
:1013D000B4010E94802A1816D4F02CA53DA54EA574
:1013E0005FA5622D2B967FAD2B972A968FAD2A97FE
:1013F000932D0E94802A18164CF52EE333EC4EE212
:1014000059E3C501B4010E9446284B015C0128A59F
:1014100039A54AA55BA5C501B4010E9445286B0109
:101420007C012D8139854A855D85622D2B967FADA6
:101430002B972A968FAD2A97932D0E94802A1816F3
:101440000CF44CCE3AA130936F0503C04AA14093EF
:101450006F052BA13CA14DA15EA1622D2B967FAD06
:101460002B972A968FAD2A97932D0E94B82A6AA3AC
:101470007CA788AB99AB0E94B2286B017C016AAD56
:101480007BAD8CAD9DAD0E94B2284B015C01A701E4
:1014900096010E9445280E9447292B013C01A6E0A5
:1014A00088A199A1A89FF001A99FF00D1124ED51E9
:1014B000FB4F518240824114510409F090C02296A2
:1014C000BFAD2297B03209F08AC089819A81AB857D
:1014D000BC858093800590938105A0938205B0938D
:1014E00083058C8D9D8DAE8DBF8D809378059093F7
:1014F0007905A0937A05B0937B058B819C81D801F7
:101500008093840590938505A0938605B093870505
:101510008D819985AA85BD8580937005909371050D
:10152000A0937205B09373058F89988DA98DBA8D9C
:1015300080937C0590937D05A0937E05B0937F05F5
:10154000E989FA89F0938905E0938805FB8DF0938A
:1015500076042BA13CA14DA15EA12093630530939D
:10156000640540936505509366058EA99FA9A8ADB3
:10157000B9AD8093670590936805A0936905B09312
:101580006A059EAD90930705AFA1A093E204109267
:1015900074051092750510927605109277051092D9
:1015A0006B0510926C0510926D0510926E05C0923D
:1015B0005F05D0926005E0926105F0926205C70177
:1015C000B6010E94CE28E989FA8965A376A387A38C
:1015D00090A70E94CB04FB8DF093750478C12AA9D3
:1015E0003BA94CA95DA968A579A58AA59BA50E94E0
:1015F000462868A779A78AA79BA72AA13CA548A93E
:1016000059A9C501B4010E9445289B01AC0168A5F8
:1016100079A58AA59BA50E94CE284B015C012AA131
:101620003CA548A959A9C701B6010E944528A501B2
:1016300094010E94B82A6AAB7BAB8CAB9DAB20ECCB
:1016400031EE44E65EE4C501B4010E94B82A0E946E
:10165000B2280E944729603D27E072078105910565
:1016600060F4A6E048A159A1A49FF001A59FF00D48
:101670001124ED51FB4F158252C0603ABFE07B0749
:101680008105910560F446E028A139A1429FF0014F
:10169000439FF00D1124ED51FB4F51E011C0603418
:1016A000AFE17A078105910568F446E028A139A1E8
:1016B000429FF001439FF00D1124ED51FB4F52E08A
:1016C00055830CC026E0A8A1B9A12A9FF0012B9F49
:1016D000F00D1124ED51FB4F33E03583A6E048A116
:1016E00059A1A49FF001A59FF00D1124ED51FB4FCE
:1016F0002581022E04C096958795779567950A9463
:10170000D2F7A20102C0440F551F2A95E2F7518378
:1017100040836115710551E08507910568F426E065
:10172000A8A1B9A12A9FF0012B9FF00D1124ED5122
:10173000FB4F7483638304C04FEF5FEF5483438395
:10174000BFA0B39456E0B51201C0B12C2D813985EC
:101750004A855D85622D2B967FAD2B972A968FAD9E
:101760002A97932D0E94802A1816BCF4822D2B965E
:101770009FAD2B972A96AFAD2A97B32DE989FA89A9
:1017800085A396A3A7A3B0A7FAA1FAAF2CA52BAF68
:1017900038A93CAF49A94DAFB5C020E030E0A90160
:1017A000622D2B967FAD2B972A968FAD2A97932D7E
:1017B0000E94802A18160CF090C089819A81AB850E
:1017C000BC858093800590938105A0938205B0939A
:1017D00083058C8D9D8DAE8DBF8D80937805909304
:1017E0007905A0937A05B0937B058B819C81D80104
:1017F0008093840590938505A0938605B093870513
:101800008D819985AA85BD8580937005909371051A
:10181000A0937205B09373058F89988DA98DBA8DA9
:1018200080937C0590937D05A0937E05B0937F0502
:1018300089899A8990938905809388059B8D9093D7
:1018400076042BA13CA14DA15EA1209363053093AA
:10185000640540936505509366058EA99FA9A8ADC0
:10186000B9AD8093670590936805A0936905B0931F
:101870006A059FA190930705B092E2041092740547
:1018800010927505109276051092770510926B05EF
:1018900010926C0510926D0510926E05C0925F0556
:1018A000D0926005E0926105F0926205C701B60131
:1018B0000E94CE28A989BA8995966D937D938D93C0
:1018C0009C9398970E94CB04BB8DB09375040E94A3
:1018D0004E1688E08093F605F5C0EFADFB8DEF174F
:1018E00079F08F2F8F5F823109F480E02B8D219664
:1018F0003FAD2197231303C021968FAF21978B8F84
:101900001A8A198A3B842C84ED80F9844FA14EAF4A
:10191000BFA20CC98B899C89AD89BE89809374054F
:1019200090937505A0937605B093770589819A8188
:10193000A32DB22D8093800590938105A0938205FD
:10194000B09383058C8D9D8DAE8DBF8D8093780572
:1019500090937905A0937A05B0937B058B819C8148
:10196000D8018093840590938505A0938605B09354
:101970008705C701AA85BD85809370059093710581
:10198000A0937205B09373058F89988DA98DBA8D38
:1019900080937C0590937D05A0937E05B0937F0591
:1019A00089899A8990938905809388059B8D909366
:1019B00076044DC08B899C89AD89BE89809374055E
:1019C00090937505A0937605B093770589819A81E8
:1019D000A32DB22D8093800590938105A09382055D
:1019E000B09383058C8D9D8DAE8DBF8D80937805D2
:1019F00090937905A0937A05B0937B058B819C81A8
:101A0000D8018093840590938505A0938605B093B3
:101A10008705C701AA85BD858093700590937105E0
:101A2000A0937205B09373058F89988DA98DBA8D97
:101A300080937C0590937D05A0937E05B0937F05F0
:101A400010928905109288058FAD809376048AAD37
:101A50009BADACADBDAD80935F0590936005A09349
:101A60006105B09362052BA13CA14DA15EA120931D
:101A700063053093640540936505509366058EA910
:101A80009FA9A8ADB9AD8093670590936805A09311
:101A90006905B0936A052AA93BA94CA95DA92093C1
:101AA0006B0530936C0540936D0550936E053EAD0C
:101AB000309307054FA14093E20421965FAD219733
:101AC00050937504C65BDF4F0FB6F894DEBF0FBEB0
:101AD000CDBFDF91CF911F910F91FF90EF90DF90DD
:101AE000CF90BF90AF909F908F907F906F905F90BE
:101AF0004F903F902F9008958091D905682F2091A5
:101B0000DA05422F982F917080FD94E0822F81702A
:101B100020FD80E261FD986041FD806462FD90617E
:101B200042FD80689093BB048093BA0408951F928D
:101B30000F920FB60F9211248F939F938BB19091B8
:101B4000BB049C71837E892B8BB915BC9F918F91AF
:101B50000F900FBE0F901F90189580916F008D7F92
:101B600080936F0080918100887F816080938100E5
:101B70001092BC048091DB058F3F21F49091F70512
:101B800095FF11C09091F605943069F090E00097B0
:101B900041F0EFE9FFE03197F1F700C00000019755
:101BA000F6CF81E001C080E09091E004992359F0E4
:101BB0009091E50592FF02C091E08927882311F0FA
:101BC000289A089528980895CF93C1E0C093E0041F
:101BD0000E94AD0D8BE2EDE5F5E0DF011D928A95E7
:101BE000E9F783E2EDEBF4E0DF011D928A95E9F776
:101BF00010928905109288051092E1041092070551
:101C0000C093E2041092BC040E947C0D8BB1837ED1
:101C10009091BB04892B8BB98BB18F719091BA04D1
:101C2000892B8BB9CF9108951F920F920FB60F9207
:101C300011242F933F934F935F936F937F938F93D1
:101C40009F93AF93BF93EF93FF938091BC04811157
:101C500010C28BB19091CC04907E8F71892B8BB97F
:101C60008BB1837E9091CB04892B8BB98091CA0470
:101C700086BD82E085BD81E08093BC04789480912C
:101C8000DE049091DF04892B09F0ADC08091E1045E
:101C900090910705981709F49BC0E091E1042E2F5D
:101CA00030E086E0E89FF0011124ED51FB4FF09306
:101CB000DF04E093DE048381948190938900809314
:101CC0008800808191819093DA048093D904E28125
:101CD0008091DB048E1761F1E093DB0481E1E89FE2
:101CE000F0011124E85FFA4FF093DD04E093DC0487
:101CF00085859685A785B089B695A795979587958B
:101D00008093BD049093BE04A093BF04B093C0041D
:101D10008093C1049093C204A093C304B093C404FD
:101D20008093C5049093C604A093C704B093C804DD
:101D3000E091DC04F091DD0490818091BA04892760
:101D40008093CC0486E0829FD001839FB00D112444
:101D5000AD51BB4F15962C9181819281A381B481A5
:101D6000022E04C0B695A795979587950A94D2F749
:101D70008093CD049093CE04A093CF04B093D0046D
:101D800085819681A781B085022E04C0B695A7955E
:101D9000979587950A94D2F78093D1049093D204B3
:101DA000A093D304B093D40481859285A385B48590
:101DB00004C0B695A795979587952A95D2F78093F5
:101DC000D5049093D604A093D704B093D8040BC045
:101DD0000E94AD0D9FB7F8948091F70584608093C1
:101DE000F7059FBF46C1809106068130B1F486B1E8
:101DF00080729091A705891781F0109206068CE0F9
:101E0000E9EFF5E0A7E0B6E001900D928A95E1F7E1
:101E10008091F70588608093F7051092CB0440917C
:101E2000BD045091BE046091BF047091C0048091C4
:101E3000CD049091CE04A091CF04B091D004840F32
:101E4000951FA61FB71F8093BD049093BE04A09357
:101E5000BF04B093C004E091DC04F091DD0445853B
:101E6000568567857089481759076A077B0768F5A3
:101E700024E02093CB044585568567857089841BB3
:101E8000950BA60BB70B8093BD049093BE04A09353
:101E9000BF04B093C00420818091F9059091FA05A8
:101EA000A091FB05B091FC0525FF04C00197A10995
:101EB000B10903C00196A11DB11D8093F90590934E
:101EC000FA05A093FB05B093FC054091C104509125
:101ED000C2046091C3047091C4048091D1049091B4
:101EE000D204A091D304B091D404840F951FA61FEF
:101EF000B71F8093C1049093C204A093C304B0930E
:101F0000C4044585568567857089481759076A074F
:101F10007B0778F52091CB0428602093CB0445857E
:101F2000568567857089841B950BA60BB70B80932C
:101F3000C1049093C204A093C304B093C40420814D
:101F40008091FD059091FE05A091FF05B0910006DE
:101F500026FF04C00197A109B10903C00196A11D84
:101F6000B11D8093FD059093FE05A093FF05B093EE
:101F700000064091C5045091C6046091C704709159
:101F8000C8048091D5049091D604A091D704B09153
:101F9000D804840F951FA61FB71F8093C504909384
:101FA000C604A093C704B093C804458556856785C9
:101FB0007089481759076A077B0778F52091CB0489
:101FC00020612093CB044585568567857089841BE5
:101FD000950BA60BB70B8093C5049093C604A093F2
:101FE000C704B093C8042081809101069091020635
:101FF000A0910306B091040627FF04C00197A10930
:10200000B10903C00196A11DB11D809301069093F3
:102010000206A0930306B09304068091F60584306F
:1020200039F49091CB048091F80589238093CB04F7
:102030008091D9049091DA0401979093DA04809307
:10204000D904892B69F41092DF041092DE04809188
:10205000E1048F5F8093E104863011F41092E10473
:102060009091CB048091BB0489278093CB0410927C
:10207000BC04FF91EF91BF91AF919F918F917F91A0
:102080006F915F914F913F912F910F900FBE0F90E5
:102090001F9018958093E00408958091E50582FFD4
:1020A00002C0289A01C028988091F6058471A1F099
:1020B0008091BA048093CC048091BB048093CB04BC
:1020C0008091D805880F845081958093CA048091AF
:1020D0006F00826080936F0008950F931F93CF93DA
:1020E000DF938B012DE0829FC0011124EC01DE5FA4
:1020F0004CE050E0BE01C8010E942804892B69F41D
:102100008CE0F80111928A95E9F74CE050E0B801B3
:10211000CE010E948E0480E001C081E0DF91CF916A
:102120001F910F91089561E080E090E00E946C049F
:102130004DE450E068EA75E081E090E00C948E0494
:102140001F920F920FB60F9211242F933F934F932C
:102150005F936F937F938F939F93AF93BF93EF930F
:10216000FF938091C6008132B1F028F48831E1F408
:102170000E949B172AC08F3341F08E37A9F49FB776
:10218000F8948091F70582600BC09FB7F894809116
:10219000F705816005C09FB7F8948091F7058860C6
:1021A0008093F7059FBF11C0E091920191E09E0FCF
:1021B000903809F490E020919101921731F0F0E00D
:1021C000EF5EFE4F808390939201FF91EF91BF915C
:1021D000AF919F918F917F916F915F914F913F91BF
:1021E0002F910F900FBE0F901F9018951F920F9276
:1021F0000FB60F9211248F939F93EF93FF938091CB
:10220000B904E82FF0E0E758FB4F90819093C600A7
:102210008F5F803409F480E08093B9049091780452
:10222000891305C08091C1008F7D8093C100FF910B
:10223000EF919F918F910F900FBE0F901F90189567
:10224000E091780491E09E0F903431F490E004C066
:102250002091F70524FD0FC02091B9042917C1F37F
:10226000F0E0E758FB4F8083909378048091C100A1
:1022700080628093C1000895CF93C82F8FE793E0C9
:102280000E94B1128C2F90E0FC013197E631F105EC
:1022900080F5E05BFF4F0C94CF2B87E693E002C004
:1022A00085E593E00E94B1122BC083E493E0FACF5E
:1022B00089E393E0F7CF88E293E0F4CF89E193E0FC
:1022C000F1CF88EF92E0EECF8FEE92E0EBCF84EE8D
:1022D00092E0E8CF81ED92E0E5CF83EC92E0E2CFAF
:1022E0008DEA92E0DFCF89E992E0DCCF85E892E0E9
:1022F000D9CF83E792E00E94B1128C2F0E947C120A
:1023000080E792E0CF910C94B112EF92FF920F937D
:102310001F93CF93DF93CDB7DEB728970FB6F8940E
:10232000DEBF0FBECDBF9E012F5F3F4F79018E01F3
:10233000075F1F4FF901982F9170919386950E17A3
:102340001F07C9F7F80182918F01805D0E9420115B
:102350000E151F05B9F728960FB6F894DEBF0FBE0D
:10236000CDBFDF91CF911F910F91FF90EF90089516
:1023700080910506882341F09FB7F8948091F70576
:1023800082608093F7059FBF08958F929F92AF92CE
:10239000BF92CF92DF92EF92FF920F931F93CF9352
:1023A000DF93CDB7DEB72A970FB6F894DEBF0FBE26
:1023B000CDBF6B017C01042F20E030E0A9010E9419
:1023C000C92887FF07C08DE20E942011F7FAF09418
:1023D000F7F8F094102F123060F020E030E048EC75
:1023E00052E4C701B6010E94B82A6B017C01125069
:1023F000F2CF00FF0AC020E030E040E251E4C70124
:10240000B6010E94B82A6B017C0120E030E040E078
:102410005FE3C701B6010E9446280E944029E1E01F
:10242000F0E0EC0FFD1FE00FF11D2EE2208310E025
:102430003AE0832E912CA12CB12C611571058105F8
:102440009105A9F0101301C01F5FEE24E394F12C55
:10245000EC0EFD1EE10EF11CA50194010E94AD2BB6
:10246000605DF7016083B901CA011F5FE6CF80E3B9
:10247000101748F4E1E0F0E0EC0FFD1FE10FF11D53
:1024800080831F5FF5CF10130BC081E0810FE1E067
:10249000F0E0EC0FFD1FE80FF11D1E5F80E380836D
:1024A000112341F0FE01E10FF11D80810E942011F6
:1024B0001150F6CF2A960FB6F894DEBF0FBECDBFEF
:1024C000DF91CF911F910F91FF90EF90DF90CF9010
:1024D000BF90AF909F908F9008952091E50520FFC9
:1024E00008C02BE832E441E25DE30E94B82A44E0F0
:1024F00001C043E00C94C5111F93CF93DF9300D02C
:102500001F92CDB7DEB7811109C080E30F900F9005
:102510000F90DF91CF911F910C94201190E02AE051
:1025200011E0190FE1E0F0E0EC0FFD1FE90FF11DE4
:10253000622F0E94A12B905D9083912F8111F0CF8B
:10254000112341F0FE01E10FF11D80810E94201155
:102550001150F6CF0F900F900F90DF91CF911F91F8
:102560000895CF93DF93FC018491EF012196882396
:1025700021F00E942011FE01F7CFDF91CF91089545
:10258000FF920F931F93CF93DF9386E696E00E940E
:10259000B1128091D8050E947C128DE496E00E94D1
:1025A000B1128091DB050E947C128FE296E00E94BE
:1025B000B1128091D9050E947C1286E196E00E94BA
:1025C000B1128091D9050E9485118FE096E00E949A
:1025D000B1128091DA050E947C1287EF95E00E948B
:1025E000B1128091DA050E94851180EF95E00E947A
:1025F000B1128091E50582FB882780F90E947C1248
:102600008FEC95E00E94B1128091E50586FB88274A
:1026100080F90E947C128FEA95E00E94B1128091AD
:10262000E505881F8827881F0E947C128FE895E0A7
:102630000E94B1128091DC050E947C1289E795E02E
:102640000E94B1128091DC050E94851181E795E01E
:102650000E94B1126091DD057091DE058091DF0569
:102660009091E00543E00E94C51180E595E00E944D
:10267000B1126091E1057091E2058091E3059091BE
:10268000E40543E00E94C51184E395E00E94B11285
:102690008091E50581700E947C1287E195E00E949F
:1026A000B1128091E505869581700E947C128DEFB4
:1026B00094E00E94B1128091E50585FB882780F99E
:1026C0000E947C1282EE94E00E94B1128091E50596
:1026D00083FB882780F90E947C1287EC94E00E949B
:1026E000B1128091E505829581700E947C128EEA7C
:1026F00094E00E94B11284E6F82EC0E008EA15E0EA
:10270000D0E08CEA94E00E94B1128D2F8F0D0E94D0
:102710007C128AEA94E00E94B112C230A1F0C33068
:10272000F1F0C13031F0F8016081718182819381D3
:102730001EC020E030E040E752E4F8016485758572
:102740008685978509C020E030E041E655E4F80130
:10275000608D718D828D938D0E94CE2808C0F80106
:1027600084A195A1A6A1B7A1BC01CD01905843E0D9
:102770000E94C51187EA94E00E94B112D13029F07D
:10278000D23031F085EA94E005C083EA94E002C0DB
:1027900081EA94E00E94B112C23051F0C33059F086
:1027A000C13019F086E994E008C083E894E005C0E0
:1027B00081E794E002C080E694E00E94B1128CE5CB
:1027C00094E00E94B112DF5F0C5F1F4FD33009F01D
:1027D00098CFFAE0FF0ECF5F8CE8F8128FCFDF9131
:1027E000CF911F910F91FF9008958C3041F081118E
:1027F00004C08AE696E00C94B1120C943C11089542
:102800004F925F926F927F92AF92BF92CF92DF9280
:10281000EF92FF920F931F93CF93DF93CDB7DEB765
:1028200068970FB6F894DEBF0FBECDBF1091F705C5
:10283000112309F4B1C1812F807609F46AC081E0C7
:102840008093F60587E094E016FF4EC015FF2AC07E
:102850000E94B11287EF93E00E94B11286ED93E0DF
:102860000E94B11285EF91E0019739F0EFE9FFE0A6
:102870003197F1F700C00000F7CF84ED93E00E949C
:10288000B11282EC93E00E94B11287E893E00E94BB
:10289000B1129FB7F8948091F7058F7E8093F7056A
:1028A0009FBF15C00E94B11289ED93E00E94B11242
:1028B00086ED93E00E94B11285EF91E00197E9F275
:1028C000EFE9FFE03197F1F700C00000F7CF80910A
:1028D000F70584FFFCCF9FB7F8948091F7058F79B7
:1028E0008093F7059FBF15C00E94B11284EE93E05C
:1028F0000E94B11286ED93E00E94B11285EF91E043
:10290000019749F3EFE9FFE03197F1F700C00000CC
:10291000F7CF14FF04C081E08093F50557C110FF85
:10292000E7C08CE0E9EFF5E0DE011D9601900D9225
:102930008A95E1F78091F6058430D9F040F4813032
:10294000D9F070F08230E1F480E394E017C0803178
:1029500051F0803259F0883099F48FE494E00EC041
:1029600086E594E00BC08AE494E008C084E494E037
:1029700005C08EE394E002C087E394E00E94B112A8
:102980008091DC0580FD05C08091DC0581FF80C061
:1029900034C089E294E00E94B1125E01FDE0AF0E06
:1029A000B11C98EAC92E95E0D92ECE0101967C0182
:1029B00000E0F50161917191819191915F01F601C2
:1029C00041905190619071906F010E947829A3010C
:1029D00092010E94CE28F7016193719381939193A4
:1029E0007F010E946D12023021F087E294E00E9484
:1029F000B1120F5F0330E9F6C7CF80E294E00E9486
:102A0000B11285E3C82E86E0D82ECE0101967C0156
:102A100000E05701F60161917191819191916F01EF
:102A200020853185428553850E9446289B01AC0153
:102A3000F70160817181828193810E944528F701AD
:102A40006083718382839383023079F420914D06F1
:102A500030914E0640914F06509150060E944528F5
:102A6000F7016083718382839383F4E0EF0EF11C9E
:102A7000F50160817181828193810E946D12023023
:102A800021F08EE194E00E94B1120F5F033009F64D
:102A90008091DC0582FF0EC088E194E00E94B112B3
:102AA0008091770490917604891708F48E5E891BD3
:102AB0000E947C128091DC0583FF0EC083E194E0CC
:102AC0000E94B1129091910180919201891708F4AE
:102AD0008058891B0E947C128FE094E00E94B11202
:102AE0009FB7F8948091F7058E7F8093F7059FBF7D
:102AF00013FF15C08091F605803149F480E2809380
:102B0000F6050E94CB040E94ED04109205069FB7C3
:102B1000F8948091F705877F8093F7059FBF11FF99
:102B20001DC08091F605883089F480E18093F60518
:102B30000E94ED040E944D108091E50581FF04C0C4
:102B400081E08093050602C0109205069FB7F894B5
:102B50008091F7058D7F8093F7059FBF12FF1CC002
:102B60008091760490917704981761F0F9E28F9F35
:102B7000C00111248D569E4F892B21F088E080934F
:102B8000F60502C01092F6059FB7F8948091F705FC
:102B90008B7F8093F7059FBF8091F6058473B1F01A
:102BA00068960FB6F894DEBF0FBECDBFDF91CF9110
:102BB0001F910F91FF90EF90DF90CF90BF90AF905B
:102BC0007F906F905F904F900C94ED0468960FB6D5
:102BD000F894DEBF0FBECDBFDF91CF911F910F9153
:102BE000FF90EF90DF90CF90BF90AF907F906F906D
:102BF0005F904F900895CF930E94B8118091F60591
:102C0000803119F481E080930506C9E28091760451
:102C100090917704981771F0C89FC00111248D56C8
:102C20009E4F892B39F00E9400148091F50588236E
:102C300069F304C08091F6058031A9F3CF9108951E
:102C4000CF93DF93EC018991882319F00E94201122
:102C5000FACFDF91CF910895A9EFB5E0EBE8F5E069
:102C60004D915D916D917D914193519361937193DC
:102C700085E0E739F807A1F708958CE1EBE8F5E086
:102C8000DF011D928A95E9F710927604109277047D
:102C900081E080938A051092750408952F923F92E7
:102CA0004F925F926F927F928F929F92AF92BF925C
:102CB000CF92DF92EF92FF920F931F93CF93DF9308
:102CC000C0917704C11101C0C2E1C150D091750417
:102CD000DC1709F41DC1EC2EF12C29E2C29F800102
:102CE00011240D561E4FF801A588B688C788D08CD0
:102CF00061A172A183A194A19B01AC010E9446280D
:102D0000F80125A136A147A150A50E94B82A4B0180
:102D10008C019B01AC01B501C6010E94C92887FD49
:102D200002C05401680189E28E9DF0018F9DF00D73
:102D30001124ED56FE4FC501D601818B928BA38BDA
:102D4000B48BC11101C0C2E1C150DC1761F029E2AE
:102D50002E9DC0012F9D900D11249C012D563E4F9C
:102D60007901D9E233C080917604D81360C00E9403
:102D7000CB045DC0AC2EB12CDA9DC001DB9D900D63
:102D80001124FC01ED56FE4F6F01C11101C0C2E1DB
:102D9000C150809176048C1302C00E94CB04DA9D4E
:102DA0008001DB9D100D11240D561E4FF801858802
:102DB0009688A788B08CA50194016189728983895E
:102DC00094890E94C928811106C0760180917504FA
:102DD000C813D0CF2CC0F80161A172A183A194A126
:102DE0009B01AC010E944628F80125A136A147A10C
:102DF00050A50E94B82AF701218932894389548954
:102E00000E9446282B013C019B01AC01C501B40185
:102E10000E94802AF80118162CF4418A528A638A8B
:102E2000748AD3CF818A928AA38AB48ACECFD09172
:102E30007504F9E2DF9F800111240D561E4FC1E099
:102E4000CD0FC23109F4C0E02090770489E2382E1A
:102E5000C21509F45BC0CC2ED12C3C9CC0013D9C1A
:102E6000900D11249C012D563E4F7901F8014188A7
:102E7000528863887488F90181889288A388B4880D
:102E8000A5019401C301B2010E94C92887FF24C093
:102E9000F80161A172A183A194A19B01AC010E94E0
:102EA0004628F80125A136A147A150A50E94B82ABD
:102EB000A30192010E9446282B013C019B01AC0119
:102EC000C501B4010E94802A181634F4F701418A22
:102ED000528A638A748ADC2F3C9CF0013D9CF00D81
:102EE0001124ED56FE4F258936894789508D618919
:102EF0007289838994890E94C928811101C0DC2FBD
:102F0000CF5FC23109F4C0E08701A2CFD09375042E
:102F1000DF91CF911F910F91FF90EF90DF90CF90B5
:102F2000BF90AF909F908F907F906F905F904F90E9
:102F30003F902F9008958091F70584FD16C09FB7AC
:102F4000F8948091F70580618093F7059FBF809189
:102F5000F605847351F09FB7F8948091F70580626D
:102F60008093F7059FBF0C94AD0D08952F923F926B
:102F70004F925F926F927F928F929F92AF92BF9289
:102F8000CF92DF92EF92FF920F931F93CF93DF9335
:102F9000CDB7DEB7A1970FB6F894DEBF0FBECDBF99
:102FA0008CE3E1E5F6E0DF011D928A95E9F78DE01B
:102FB000E3E1F6E0A2E5B6E001900D928A95E1F733
:102FC0001D8E00E010E0C12CD12CF12C712CAA2414
:102FD000A394B12C662463948D8DE82FF0E0E35721
:102FE000F94F8080882009F404C19FEB980D9A3135
:102FF00008F0F0C58F5F8D8FBE01675E7F4FCE01F9
:103000004D960E946F1E882309F4E6C5298C3A8CE0
:103010004B8C5C8CC201B1010E948F2B0E9447290E
:10302000962E70E080E090E00E9478299B01AC0130
:10303000C201B1010E94452820E030E048EC52E492
:103040000E94B82A0E94252B0E944729B7E48B16BC
:1030500021F0EDE48E1629F160C0F1E09F1639F001
:1030600022E39212C3C58AE08093510608C0711012
:10307000B5C590925206EE24E39422E0722E6623A8
:1030800011F087E1D7C5C5010E2C02C0880F991F2A
:103090000A94E2F79C012C213D21232BD9F185E1F3
:1030A000C9C56111EECF92E1991609F1991558F051
:1030B000A2E09A16A1F0B1E19B16B1F0911096C56D
:1030C000609259060EC0E6E49E16A1F0F7E49F1642
:1030D000A1F022E392128AC560925E0610C090921F
:1030E000590698E0E92E0BC060925D0608C0109268
:1030F0005D0605C010925C0602C060925C06C501C8
:103100000E2C02C0880F991F0A94E2F7960128231B
:103110003923C3CFC82AD92A5FCF88E5881659F149
:1031200088155CF096E48916E1F0A4E58A125EC584
:103130009092800689E0E82E39C0B9E58B1649F1F6
:10314000EAE58E1253C52092890630928A06409293
:103150008B0650928C068F2D8460F82EFCE0EF2EAB
:1031600025C020925F063092600640926106509220
:103170006206E12C1BC020928106309282064092AA
:10318000830650928406FF2DF160FF2EBAE0EB2EED
:103190000DC0209285063092860640928706509296
:1031A00088062F2D2260F22EABE0EA2E45010E2C70
:1031B00002C0880C991C0A94E2F7C4018023912371
:1031C000892B09F00DC581E693E00E2C02C0959580
:1031D00087950A94E2F780FF09C020E030E0A9015A
:1031E000C201B1010E94C92887FDFCC40829192920
:1031F000F3CEFF2021F0711002C0E2E07E2E05FF29
:103200000EC08091700690917106A0917206B091E7
:10321000730680389649A849B1050CF0E5C4809141
:103220005306813031F4F2E07F1232C000FFE2C475
:103230002FC08091140681112BC000FF13C0809114
:103240005406813029F523E333E34BEC51E46091DC
:103250005F067091600680916106909162060E94FF
:10326000B82A0EC020E030E040E752E46091240626
:103270007091250680912606909127060E94CE28FF
:1032800060935F0670936006809361069093620678
:1032900010FD10C08091200690912106A091220679
:1032A000B091230680937C0690937D06A0937E06C2
:1032B000B0937F0680915106813029F406FD02C04B
:1032C0008CE1B8C40F7B80915406813061F08CE0B2
:1032D000E5E3F6E0DE011D9601900D928A95E1F797
:1032E000C7FC2FC036C071E5872E76E0972EA12C43
:1032F000B12C4F2C512CC2010A2C02C095958795F8
:103300000A94E2F780FF12C023E333E34BEC51E46D
:10331000D401D0966D917D918D919C91D3970E940F
:10332000B82AF40160AB71AB82AB93ABFFEFAF1A7D
:10333000BF0A24E0820E911C83E0A816B104D9F6DE
:10334000C6CF80915806873028F5909119068913C9
:1033500023C0E090510692E0E91629F0A8E0EA16B1
:1033600009F4D4C042C1FF2009F48FC0C8018075A0
:103370009927892B09F4A4CF609174067091750682
:1033800080917606909177060E948F2B0E944729A4
:10339000673058F08DE14EC4BE01635F7F4F0E94DD
:1033A0006D108111D6CF87E045C480916F068431BE
:1033B00009F06DC00F7A662309F46FC0EE24EA9419
:1033C000E60EBE016F5F7F4F8E2D0E946D10882329
:1033D00051F360906F0620904D0630904E0640905D
:1033E0004F065090500661E5862E66E0962EFE014F
:1033F00031966F0183E196E09F8F8E8FA12CB12CC7
:10340000AF2DB0E0B9A3A8A388A199A10A2C02C04E
:10341000959587950A94E2F780FD42C0FFEFAF1AB9
:10342000BF0A24E0820E911C84E0C80ED11CAE8D30
:10343000BF8D1496BF8FAE8FB3E0AB16B10421F7EA
:10344000D0905206E5E0DE1609F46FC1F2E07F127B
:10345000B1C1DD2009F46CC120E030E0A901609128
:103460005F067091600680916106909162060E94ED
:10347000C928882309F4BEC321E0D21609F458C133
:1034800084E0D8129DC1F11057C18AE1D3C38230C4
:1034900009F0ACC307FDAAC38DCFE090580691CFC9
:1034A000B4E16B1228C0EE8DFF8D26A537A540A98B
:1034B00051A966897789808D918D0E944528D40114
:1034C000D0962D913D914D915C91D3970E944528C6
:1034D000F6016083718382839383F2E0AF129ECF03
:1034E000A20191010E944528D6016D937D938D9391
:1034F0009C93139793CFF40180A991A9A2A9B3A992
:10350000F60180839183A283B38388CFFF2009F4DF
:10351000BCCF20904D0630904E0640904F06509004
:10352000500643E1842E46E0942EFE013D96FF8F27
:10353000EE8F51E5C52E56E0D52EA12CB12C8F2D46
:1035400090E099A388A388A199A10A2C02C095951F
:1035500087950A94E2F780FF2AC0AE8DBF8D2D912A
:103560003D914D915C91F40166897789808D918DB3
:103570000E944528D601D0962D913D914D915C91A8
:10358000D3970E944528F60160AB71AB82AB93AB39
:10359000F2E0AF1216C0A20191010E944528D601A7
:1035A000D0966D937D938D939C93D3970AC0F4012D
:1035B00086A597A5A0A9B1A9F60180AB91ABA2AB56
:1035C000B3ABFFEFAF1ABF0A24E0820E911C8E8DC1
:1035D0009F8D04969F8F8E8F94E0C90ED11CA3E01F
:1035E000AA16B10409F0AFCF9EC0FF2009F408C3AA
:1035F0006090550620904D0630904E0640904F0644
:103600005090500623E1822E26E0922E31E5C32E03
:1036100036E0D32EFE013D96FF8FEE8FA12CB12C0C
:103620008F2D90E099A388A388A199A10A2C02C0AC
:10363000959587950A94E2F780FD0BC0F401868981
:103640009789A08DB18DF60180AB91ABA2ABB3ABE6
:1036500045C0F7E0EF1609F441C061102CC0D40159
:103660009E962D913D914D915C91D197EE8DFF8D60
:1036700060817181828193810E944628D601D09613
:103680002D913D914D915C91D3970E944628F60172
:1036900060AB71AB82AB93ABF2E0AF121FC0A20183
:1036A00091010E944628D601D0966D937D938D930B
:1036B0009C93D39713C0F40126893789408D518D8F
:1036C000D601D0966D917D918D919C91D3970E945A
:1036D0004628F60160AB71AB82AB93ABFFEFAF1A3C
:1036E000BF0A24E0820E911C84E0C80ED11CAE8D6E
:1036F000BF8D1496BF8FAE8FB3E0AB16B10409F047
:1037000093CF87C287E0E81609F489C293E0E912F3
:103710000AC0712CBE016F5F7F4F86E00E946D1062
:10372000882309F440CEE12C8BCEF11061C242C057
:10373000FF2009F441C044C02091290630912A0697
:1037400040912B0650912C06609181067091820663
:1037500080918306909184060E94C928811130C00F
:103760002091850630918606409187065091880603
:1037700060912D0670912E0680912F069091300653
:103780000E94C92881111CC02091890630918A06A7
:1037900040918B0650918C066091310670913206F3
:1037A00080913306909134060E94C928811108C087
:1037B00081E240C2711004C00E7D1C7F712C02C0DA
:1037C0000E7D107E012B09F017C280915306809365
:1037D000140620E030E040E752E460915F0670910B
:1037E000600680916106909162060E94B82A6093FB
:1037F00024067093250680932606909327068091D1
:10380000800680932806809151068130B9F080911E
:1038100056068093170680915806909119069817BE
:1038200009F468C0809319068CE0FE013D96A5E37B
:10383000B6E001900D928A95E1F75CC08091F605A3
:10384000823029F3209074063090750640907606F9
:103850005090770620E030E040EA51E4C201B10127
:103860000E94B82A0E94B3290E9447294B015C019B
:103870000E94FB1520E030E04AE754E4C201B101A8
:103880000E94B82A1B012C0182E3889DB001899D0A
:10389000700D112480E090E00E9476299B01AC011C
:1038A000C201B1010E9445280E94B3290E94472904
:1038B00061157105D9F0AFE9BFE01197F1F700C0CC
:1038C000000061507109F4CF0E940014B1E08B1A1E
:1038D00091088091F50581119ACFEFEFF0E722E092
:1038E000E150F0402040E1F700C000008114910455
:1038F00059F78DCF8091550680931606E0915106B9
:103900008E2F90E0FC013297E930F10508F063C09A
:10391000EA59FF4F0C94CF2BADE0EA9EC001112471
:103920004CE050E0BE016F5F7F4F9E5F0E948E04AF
:1039300080911906E8124FC08CE0FE013196A5E394
:10394000B6E019C0772049F020E040E050E060E8A0
:103950007FEB81E896E00E94231F20E040E050E0EA
:1039600060E87FEBCE0101960E94231F8CE0FE01F0
:103970003196A9E2B6E001900D928A95E1F72BC04D
:103980004CE050E069E276E08EE492E006C04CE064
:1039900050E069E276E08BE592E00E948E041BC065
:1039A0008CE0E1E8F6E0A1E4B6E0E5CF8CE0E1E40C
:1039B000F6E0DF011D928A95E9F70DC08CE0E9EF92
:1039C000F5E0DF011D928A95E9F70E943D160E94FD
:1039D0002C160E94F1038091520680931306B2E0E8
:1039E0007B12BEC0813051F018F08430B1F0AFC00E
:1039F00020E040E050E060E87FEB0AC04091240600
:103A00005091250660912606709127062091140694
:103A100081E896E00E94231F9AC03090140680909F
:103A2000240690902506A0902606B0902706809147
:103A3000F605823009F48BC00E94FB152090050624
:103A400086B180729091A705891751F09FB7F894BD
:103A50008091F70580648093F7059FBF0E94001452
:103A60008091F505811173C0232DB501A40181E872
:103A700096E00E94231F81E0809306069FB7F8948A
:103A80008091F70582608093F7059FBF0E94001424
:103A90008091F50581115BC08091F605877FB1F7B4
:103AA00080910606813041F49FB7F8948091F70524
:103AB00080648093F7059FBF0E9400148091F505F4
:103AC000811145C00E94E40D0E943D160E942C16F3
:103AD00007E016E088EAC82E85E0D82E91E8E92EA6
:103AE00096E0F92EF80161917191819191918F0188
:103AF000D6014D905D906D907D906D010E9478296A
:103B0000A30192010E94CE28F701619371938193E2
:103B100091937F01F6E003311F0721F7232DB501B3
:103B2000A40181E896E00E94231F9FB7F89480913A
:103B3000F70582608093F7059FBF0E94FB15809177
:103B4000F505811104C0209205060E94D2278CE061
:103B5000E1E8F6E0A9E2B6E001900D928A95E1F77E
:103B60008091590680931A06882369F00E94FB15FC
:103B70001092050680911A06823019F40E949B1754
:103B800002C010921A0660915C0660931D0670E0F8
:103B90008091800690E00E94DB0380915D06809317
:103BA0001E06813039F480E090E00E944A100E94A5
:103BB0004D1006C081E090E00E944A100E94AD0DB9
:103BC00080915E068130D1F48091800690E00E9461
:103BD000572214C081E02EC082E02CC088E12AC0A8
:103BE00089E128C084E026C08BE124C084E122C0A2
:103BF0008FE120C086E11EC084E21CC080E01AC0B4
:103C000025E0E2127FCD712CBE016F5F7F4F87E010
:103C100085CDA5E0EA16C1F3B7E0EB1207C08091AD
:103C20005206823008F47FCD8EE104C0E3E0EE124C
:103C30007ACD70CDA1960FB6F894DEBF0FBECDBF82
:103C4000DF91CF911F910F91FF90EF90DF90CF9078
:103C5000BF90AF909F908F907F906F905F904F90AC
:103C60003F902F900895CF93DF9321E5829FC0016D
:103C70001124EC01DD5F40E550E0BE018DE896E0E7
:103C80000E942804892B59F410928D0640E550E0DB
:103C90006DE876E0CE010E948E0480E001C081E0F4
:103CA000DF91CF910895CF93C0E08C2F0E94331EF7
:103CB000811104C087E00E943C110CC080918D06E8
:103CC000882341F08DE896E00E9420160E94B617E6
:103CD0000E94F513CF5FC23041F7CF9108958F92C4
:103CE0009F92AF92BF92CF92DF92EF92FF920F938B
:103CF0001F93CF93DF937C016B01DC01CC91D0E06B
:103D0000FE01E357F94F80818D3229F4EF012296AD
:103D1000818101E009C08B3219F0C257D94F03C02D
:103D2000EF012296818100E0912CF0E010E020E08C
:103D300030E0A9015E01E0EDE80FEA30D0F4FF5F6A
:103D4000F93098F491101150A5E0B0E00E94D52B05
:103D5000DC01CB01880F991FAA1FBB1F9C01AD017D
:103D60002E0F311D411D511D0AC0911008C01F5F4B
:103D700006C0EE3F41F4911006C099249394219619
:103D8000D5018C91D7CFFF2309F44FC0CA01B901E7
:103D90000E9476294B015C0120E030E0A9010E94DD
:103DA000C928882349F11F3F64F42AE037ED43E234
:103DB0005CE3C501B4010E94B82A4B015C011E5F9F
:103DC000F2CF1F3F59F42DEC3CEC4CEC5DE3C50108
:103DD000B4010E94B82A4B015C010EC0112361F0AE
:103DE00020E030E040E251E4C501B4010E94B82A6D
:103DF0004B015C011150F2CF002351F0B7FAB0949F
:103E0000B7F8B094F60180829182A282B38206C094
:103E1000D6018D929D92AD92BC921397CD58D6400B
:103E2000C150F701C08381E001C080E0DF91CF91F4
:103E30001F910F91FF90EF90DF90CF90BF90AF90C8
:103E40009F908F9008952F923F924F925F926F9222
:103E50007F928F929F92AF92BF92CF92DF92EF921A
:103E6000FF920F931F93CF93DF93CDB7DEB7E79702
:103E70000FB6F894DEBF0FBECDBFD82EF92E142F8B
:103E8000052F362E272EE22E8091F605823009F47A
:103E9000F5C20E9400148091F5058111EFC22091B6
:103EA00076042FAB30918A053CAB231303C00E94EC
:103EB000B811EFCF809177048DA7E82FF0E0F8A339
:103EC000EF8F29E2829FF0011124ED56FE4F1586F7
:103ED00016861786108A15A216A217A210A610829F
:103EE00089E996E7A6E9BEE781A392A3A3A3B4A3B9
:103EF000DB8EFC8E48EA55E05FA74EA7CE010D96FB
:103F00009EA38DA32BE835E03EAB2DAB4DA539E24A
:103F1000439FC00111249C012C563E4F3AA729A76C
:103F2000AE014F5F5F4F5AA349A35CA74BA78BE835
:103F300095E09CA38BA328EA35E038A72FA3F12CAA
:103F40006F01AF01435F5F4F59AB48ABCF0185961F
:103F50009E8F8D8FEB8DFC8D6191719181919191EF
:103F6000FC8FEB8FEFA1F8A541905190619071907B
:103F7000F8A7EFA3A30192010E94B82A0E94852A04
:103F8000EDA1FEA16193719381939193FEA3EDA3A3
:103F9000EBA1FCA181909190A190B190FCA3EBA327
:103FA000681979098A099B099B01AC0197FF07C031
:103FB00022273327A901261B370B480B590BE9A5EC
:103FC000FAA52193319341935193FAA7E9A7E8A960
:103FD000F9A980809180A280B38082169306A406FE
:103FE000B50610F449015A01E8A9F9A98082918225
:103FF000A282B3820E947829A30192010E94CE2856
:104000002B013C01EBA5FCA56193719381939193E6
:10401000FCA7EBA720E030E0A9010E94C92887FF98
:104020000EC0FF2029F0F1E0FF1204C080E403C0BD
:1040300080E201C080E8F6019081892B8083A30192
:104040009201C301B2010E94B82AED8DFE8D20813C
:104050003181428153810E944628ED8DFE8D60831F
:10406000718382839383F394F3E0FF1273CF0E94F2
:104070004F2B2B013C01ED8DFE8D6083718382837C
:10408000938389288A288B2809F4F1C120E030E045
:10409000A901612F702F832D922D0E94C92887FDC1
:1040A00021C0EE2061F0212F302F432D522DC3016E
:1040B000B2010E94CE28162F072F382E292E20E07D
:1040C00030E040E85FE3612F702F832D922D0E9436
:1040D000C92887FF0DC010E000E080E8382E9FE37C
:1040E000292E06C019E906E726E9322E3EE7232EDF
:1040F000A301920160E070E080E89FE30E94CE2877
:1041000068AB79AB8AAB9BAB9E01235F3F4F3A8F85
:10411000298F812C912C540129E24F8D58A1249F85
:10412000C001259F900D1124FC01EC54FE4FFC8F23
:10413000EB8FE9A1FAA1C080D180E280F38020E07A
:1041400030E0A901C701B6010E94C928882309F4FB
:1041500078C0A701960168A979A98AA99BA90E949C
:10416000B82A2B013C01E9A1FAA160837183828303
:1041700093839B01AC0160E070E080E89FE30E94C4
:10418000CE286B017C01E894F7F8EEA5FFA5248505
:10419000358546855785C701B6010E94B82A6D8FBF
:1041A0007BA38DA39FA3212F302F432D522D0E943F
:1041B000802A181624F41D8F0BA33DA22FA2EB8D8D
:1041C000FC8D30802180F281F9A7EB8DFC8DF3818D
:1041D000FBA7EEA5FFA5208D318D428D538DC70124
:1041E000B6010E94B82A7B018C019B01AC01632DB2
:1041F000722D89A59BA50E94C92887FF04C0E32CC6
:10420000F22C09A51BA5C701D801EB8DFC8D80837D
:104210009183A283B383EDA9FEA9248535854685C4
:104220005785C301B2010E94B82A9B01AC01C501A8
:10423000B4010E9445284B015C011D8D0BA13DA0DE
:104240002FA029A13AA12C5F3F4F3AA329A34DA942
:104250005EA94C5F5F4F5EAB4DAB8EA59FA50496EC
:104260009FA78EA7E98DFA8DE217F30709F061CFBA
:10427000FDA52FA9F21313C089E24F8D58A1849F89
:10428000F001859FF00D1124ED56FE4F118A128A20
:10429000138A148A118E128E138E148E58C0A501A3
:1042A000940160E070E080E89FE30E94452820E0F0
:1042B00030E040E05FE30E94B82A0E944F2B6B0180
:1042C0007C0189E22F8D38A1829FF001839FF00D40
:1042D0001124ED56FE4F2091DD053091DE05409111
:1042E000DF055091E00561A172A183A194A10E9414
:1042F000B82AA70196010E94B82A4B015C01A701C8
:10430000960160E070E080E89FE30E9445289B01F1
:10431000AC01C501B4010E94CE286B017C0120E0F4
:1043200030E0A9010E94C92887FF03C0C12CD12C0D
:10433000760189E24F8D58A1849FF001859FF00D91
:104340001124ED56FE4FC18ED28EE38EF48E212FB6
:10435000302F432D522D612F702F832D922D0E94CF
:10436000B82A7B018C0189E22F8D38A1829FF00150
:10437000839FF00D1124ED56FE4FC701D801858FA4
:10438000968FA78FB0A3B18CC28CD38CA48C609075
:10439000A3057090A4058090A5059090A6059301B3
:1043A000A401B701C8010E94C92887FF05C07E2D5E
:1043B0006F2D902F812F04C0762D672D982D892D7C
:1043C000272F362F492F582F6B2D7C2D8D2D9A2D71
:1043D0000E94C92887FD11C09301A401B701C8013B
:1043E0000E94C92887FF05C0BE2CCF2CD02EA12E3D
:1043F00004C0B62CC72CD82CA92C89E24F8D58A10B
:10440000849FF001859FF00D1124ED56FE4F8B2DFA
:104410009C2DAD2DBA2D858B968BA78BB08F8CE004
:10442000FE013196A7E9B5E001900D928A95E1F77A
:10443000C701D8018093A3059093A405A093A50577
:10444000B093A6058CE0FE013D96ABE8B5E0019087
:104450000D928A95E1F75CA950937704852F8F5FC1
:10446000823109F480E080938A050E944E16809183
:10447000F605811103C088E08093F605E7960FB634
:10448000F894DEBF0FBECDBFDF91CF911F910F918A
:10449000FF90EF90DF90CF90BF90AF909F908F9064
:1044A0007F906F905F904F903F902F900895CF93A3
:1044B000DF9300D000D01F92CDB7DEB790917C0083
:1044C000907F90937C0090917C00892B80937C005E
:1044D00080917A00806480937A0080917A0086FDD2
:1044E000FCCF80917800909179004AE0BE016F5F27
:1044F0007F4F0E941028CE0101960E94201684E072
:1045000091E00E9420160F900F900F900F900F9047
:10451000DF91CF910895CF93DF93CDB7DEB7619749
:104520000FB6F894DEBF0FBECDBF8091C000826091
:104530008093C0001092C50080E18093C4008091F8
:10454000C10080618093C1008091C1008860809328
:10455000C1008091C10080688093C10080E090E03C
:104560000E948D03813009F041C44DE450E061E0C8
:1045700070E088EA95E00E942804892B09F436C48B
:1045800010E0BE016F5F7F4F812F0E946D1081117F
:1045900003C087E00E943C111F5F183091F78AB179
:1045A0008C618AB9209A8AB1806E8AB98091810023
:1045B0008F7E80938100809181008860809381004C
:1045C000809180008C7F80938000809180008F702C
:1045D0008093800080916E00887F80936E0014BC71
:1045E00015BC80916E00816080936E0080917A008E
:1045F000876080937A0080917C00806480937C0047
:1046000080917A00806880937A0080917A0080643B
:1046100080937A008EE1E5EFF5E0DF011D928A9547
:10462000E9F781E08093F50578949091E50594FD94
:104630008093F605F3E1CF2EF6E0DF2E7724739416
:10464000A2E0EA2EB3E06B2E80919201809391015B
:104650008EE3F60111928A95E9F765E376E080E052
:104660000E946D10811103C087E00E943C110E94DE
:1046700074033D988091E50587FF04C0459810922A
:10468000A70504C0459A80E28093A7050E943D16C5
:104690000E94E40D0E942C160E94F1031092F50571
:1046A0001092F7058091E50581FF03C07092050621
:1046B00002C0109205068EED90E00E94B11280912A
:1046C000F605813069F484ED93E00E94B1128EEA20
:1046D00093E00E94B11287E893E00E94B1122EC0CD
:1046E0001092F6050E94531E29C08D30E1F011236F
:1046F00009F45CC311E0893209F410E09091910152
:10470000809192019817E1F0E92FF0E0EF5EFE4F03
:1047100080819F5F903809F490E0909391018F3FE2
:1047200079F08A3011F7E02FF0E0E357F94F10826B
:104730000E940014F090F505FF2059F000E0DDCF55
:104740000E94B8110E9400148091F5058823B1F2EF
:104750007BCF80918D06882389F3843209F01BC3B7
:10476000798A80918E06833409F472C02CF48823F0
:1047700049F0843251F0A6C08734B9F0883509F485
:1047800088C0A0C086E491E060C0E98A80918F066D
:104790008111F5C28091F6058073F82E19F0E8E0DA
:1047A000FE2EF5C20E94C012F2C2E98A80918F06E5
:1047B0008111E5C280911306823091F038F488238C
:1047C00061F08130A1F48EE391E00FC0833059F0A5
:1047D000853069F481E391E008C082E491E005C08E
:1047E0008AE391E002C086E391E00E94B1128EE27A
:1047F00091E00E94B112809119068A5C0E947C129D
:104800008BE291E00E94B112809128060E947C12F6
:1048100088E291E00E94B112609124067091250611
:1048200080912606909127062091E50520FF08C07B
:104830002BE832E441E25DE30E94B82A41E001C086
:1048400040E00E94C51184E291E00E94B1129FC233
:10485000E98A80918F06811192C28091F60582309B
:1048600049F40E949B1784ED93E00E94B1128BE8FB
:1048700093E00AC0811193CFE092F60584ED93E0B6
:104880000E94B11284E993E00E94B11287E893E09C
:10489000DCCFE98A80918F06811171C28091F60583
:1048A000813009F074C284ED93E00E94B1128CE96A
:1048B00093E00E94B11287E893E00E94B112109237
:1048C000F60565C29091F605923008F068CF8834FD
:1048D00009F482C01CF4833241F0F1C0893409F438
:1048E00082C08E3409F4C0C0EAC0E98A80918F0684
:1048F000811145C210E0BE016F5F7F4F812F0E9482
:104900006D10811104C087E00E943C111CC181E23E
:1049100091E00E94B112163029F0173041F48BE17A
:1049200091E002C08EE191E00E94B11204C086E3E2
:10493000810F0E947C1289E191E00E94B112CE01A8
:1049400001965C0100E0D5016D917D918D919D9165
:104950005D010E946D12023019F087E191E002C002
:1049600083E191E00E94B1120F5F033061F71F5F96
:10497000183009F68DE091E00E94B11271E4A72E83
:1049800076E0B72E10E0F5016191719181919191DE
:104990005F010E946D12123019F08BE091E002C0AD
:1049A00087E091E00E94B1121F5F133061F781E050
:1049B00091E00E94B11260914D0670914E06809177
:1049C0004F06909150060E946D128DEF90E00E946C
:1049D000B1120E94D227DBC18091E50584FFC7C1D7
:1049E0000E94531ED4C1E98A80918F0681111FC095
:1049F00040E550E06EEA73E08DE896E00E942804FE
:104A0000892B51F410928D0640E550E06DE876E078
:104A10008EEA93E00E948E0487EF90E00E94B1122C
:104A20008DE896E00E94201683EF90E00ECF698A11
:104A30008D3309F0A4C183E0282F30E0F901E3575A
:104A4000F94F9081D901A657B94F9C938F5F908100
:104A50009111F2CF898B40E550E06DE876E08EEA67
:104A600093E00E948E0493C1E98A80918F068111A0
:104A700022C010E0812F0E94331E811104C087E004
:104A80000E943C1113C080EF90E00E94B112812F70
:104A90000E947C128EEE90E00E94B1128DE896E0AA
:104AA0000E9420168BEE90E00E94B1121F5F123020
:104AB00009F46DC1DFCF911172CE11E001C010E099
:104AC000BE01635F7F4FCE0141960E946F1E811130
:104AD00003C062E0F62E5BC1E98981E08E0F898B0D
:104AE000F0E0E357F94F90819D3309F048C111235D
:104AF00061F1482F50E0282F30E0D901A357B94F7A
:104B00009C91241B350BF901E357F94F90838F5F7C
:104B10009C919111F0CF898B0E94B61781112AC107
:104B20006D857E858F8598890E948F2B0E944729ED
:104B3000F1E56F9FC001112440E550E06DE876E09B
:104B40009D5F0E948E04F12C22C1BE016F5F7F4FDA
:104B5000CE0141960E946F1E882309F4BACFE989DD
:104B6000F0E0E357F94F8081811109C189809A8073
:104B7000AB80BC806D857E858F8598890E94472992
:104B8000062F20E030E0A901C501B4010E94C92828
:104B900087FDF2C0043608F452C08CE9800F90E023
:104BA000833008F043C0082F10E0000F111F000FE2
:104BB000111F9230C9F0933069F1913021F0F80162
:104BC000E855FA4F2EC00C541A4F20E030E040E771
:104BD00052E4C501B4010E94B82AD8016D937D93B7
:104BE0008D939C931397C0C000541A4F20E030E07F
:104BF00040E752E4C501B4010E94B82A20E030E049
:104C000040E752E40E94B82AF801608371838283EE
:104C10009383AAC0F801E453FA4FB7FAB094B7F8F7
:104C2000B09480829182A282B3829EC09F5F8A30BC
:104C300008F4A5C0943009F4A2C08A50B1CFC501D0
:104C4000B4010E948F2B0E944729802F90E08C3165
:104C5000910508F094C0FC01EC5CFF4F0C94CF2B45
:104C6000633008F48FC06093D8057EC06093DB0585
:104C70007BC06093D90502C06093DA050E947C0D69
:104C800073C08091E505662311F0846001C08B7FBD
:104C90008093E50569C08091E505662311F0806485
:104CA000F7CF8F7BF5CF8091E505662311F0806803
:104CB000EFCF8F77EDCF6093DC058092DD0590928A
:104CC000DE05A092DF05B092E0054EC08092E105BE
:104CD0009092E205A092E305B092E40545C0809170
:104CE000E505662311F08160D3CF8E7FD1CF80910F
:104CF000E505662311F08260CBCF8D7FC9CF80910F
:104D0000E505662321F084FF40C08062C1CF8F7D1E
:104D1000BFCF8091E505662311F08061B9CF8F7C0C
:104D2000B7CF6093E60520C08092E7059092E80532
:104D3000A092E905B092EA0517C08092EB05909227
:104D4000EC05A092ED05B092EE050EC070E07093F8
:104D5000F0056093EF0508C08092F1059092F2058E
:104D6000A092F305B092F4050E94931010C045E0A4
:104D7000F42E0DC0F82E0BC034E0F32E08C023E053
:104D8000F22E05C096E0F92E02C08AE0F82E8F2D93
:104D90000E94F513D3CC8091F605813021F489E08F
:104DA0000E943C11CBCC0E94B617F2CF813208F49E
:104DB000A5CC8F3209F4A2CC8832B1F00F3428F0A0
:104DC0008BE00E943C1100E099CC202F30E0E1E024
:104DD000E00F9FE9980FD901A357B94F9A3108F412
:104DE00080528C930E2F8ACC11E088CC87E00E94F1
:104DF0003C118AE08093D80589E18093DB0510920D
:104E0000D90586E08093DA0583E08093DC058AE0AB
:104E100097EDA3EABCE38093DD059093DE05A093B4
:104E2000DF05B093E0058FE692E1A3E0BBE380935A
:104E3000E1059093E205A093E305B093E405109299
:104E4000E60580E090E0A8ECB1E48093E70590935C
:104E5000E805A093E905B093EA0580E090E0AAEFA9
:104E6000B3E48093EB059093EC05A093ED05B0932C
:104E7000EE058AEF90E09093F0058093EF0580E0D7
:104E800090E0A0E8BFE38093F1059093F205A09332
:104E9000F305B093F40582E08093E50584EE98E392
:104EA000AEE0B1E48093A8059093A905A093AA056C
:104EB000B093AB058093AC059093AD05A093AE0580
:104EC000B093AF058093B0059093B105A093B20560
:104ED000B093B30580E090ECA8E2B6E48093B4050B
:104EE0009093B505A093B605B093B7058093B80528
:104EF0009093B905A093BA05B093BB058093BC0508
:104F00009093BD05A093BE05B093BF0580E094E3E8
:104F1000AEE1B9E48093C0059093C105A093C205AA
:104F2000B093C3058093C4059093C505A093C605AF
:104F3000B093C7058093C8059093C905A093CA058F
:104F4000B093CB0580E090E0A7E8B4EC8093CC056B
:104F50009093CD05A093CE05B093CF058093D00557
:104F60009093D105A093D205B093D3058093D40537
:104F70009093D505A093D605B093D7050E949310C2
:104F800060E080E093E00E946C0460E081E593E0E3
:104F90000E946C0460E08EEA93E00E946C040E9420
:104FA000C012EECA8F929F92AF92BF92EF92FF9281
:104FB0000F931F93CF938AE692E00E94B11287E08D
:104FC000E82E86E0F82E08EA15E0C0E0F7016191CE
:104FD0007191819191917F01F80181909190A190BF
:104FE000B1908F010E947829A50194010E94CE28DA
:104FF0000E946D12C23021F088E692E00E94B11248
:10500000CF5FC33019F784E692E0CF911F910F91E3
:10501000FF90EF90BF90AF909F908F900C94B11243
:10502000BB274A3031F4992322F4BDE29095819553
:105030009F4F0C941C28BB27FB015527AA27880FDC
:10504000991FAA1FA41710F0A41B83955051B9F7FC
:10505000A05DAA3308F0A95DA193009779F7B1117B
:10506000B1931192CB010C943528DC01FC01672F20
:1050700071917723E1F7329704C07C916D9370832F
:105080006291AE17BF07C8F308955058BB27AA27EF
:105090000E945D280C942E2A0E94202A38F00E943B
:1050A000272A20F039F49F3F19F426F40C941D2A86
:1050B0000EF4E095E7FB0C94EE29E92F0E943F2ABD
:1050C00058F3BA17620773078407950720F079F43D
:1050D000A6F50C94792A0EF4E0950B2EBA2FA02D8C
:1050E0000B01B90190010C01CA01A0011124FF2795
:1050F000591B99F0593F50F4503E68F11A16F04090
:10510000A22F232F342F4427585FF3CF469537958E
:105110002795A795F0405395C9F77EF41F16BA0B53
:10512000620B730B840BBAF09150A1F0FF0FBB1F01
:10513000661F771F881FC2F70EC0BA0F621F731F4A
:10514000841F48F4879577956795B795F7959E3FA7
:1051500008F0B0CF9395880F08F09927EE0F979538
:10516000879508950E94612A90F09F3748F4911125
:1051700016F40C947A2A60E070E080E89FE30895CA
:1051800026F01B16611D711D811D0C94F4290C94D1
:105190000F2A0E94CA2908F481E008950E94E2289B
:1051A0000C942E2A0E94272A58F00E94202A40F0B0
:1051B00029F45F3F29F00C94EE2951110C947A2ABE
:1051C0000C941D2A0E943F2A68F39923B1F35523BA
:1051D00091F3951B550BBB27AA276217730784070A
:1051E00038F09F5F5F4F220F331F441FAA1FA9F3A0
:1051F00035D00E2E3AF0E0E832D091505040E6958E
:10520000001CCAF72BD0FE2F29D0660F771F881FEE
:10521000BB1F261737074807AB07B0E809F0BB0BE1
:10522000802DBF01FF2793585F4F3AF09E3F5105F5
:1052300078F00C94EE290C947A2A5F3FE4F3983EC0
:10524000D4F3869577956795B795F7959F5FC9F7DE
:10525000880F911D9695879597F90895E1E0660F5F
:10526000771F881FBB1F621773078407BA0720F0D8
:10527000621B730B840BBA0BEE1F88F7E095089541
:105280000E9447296894B1110C947A2A08950E94CB
:10529000472A88F09F5798F0B92F9927B751B0F057
:1052A000E1F0660F771F881F991F1AF0BA95C9F7AA
:1052B00014C0B13091F00E94792AB1E008950C94A5
:1052C000792A672F782F8827B85F39F0B93FCCF358
:1052D000869577956795B395D9F73EF49095809527
:1052E000709561957F4F8F4F9F4F0895E89409C047
:1052F00097FB3EF490958095709561957F4F8F4F09
:105300009F4F9923A9F0F92F96E9BB279395F6951E
:10531000879577956795B795F111F8CFFAF4BB0F9C
:1053200011F460FF1BC06F5F7F4F8F4F9F4F16C000
:10533000882311F096E911C0772321F09EE8872F8A
:10534000762F05C0662371F096E8862F70E060E046
:105350002AF09A95660F771F881FDAF7880F9695BF
:10536000879597F908950E94612A90F09F3748F435
:10537000911116F00C947A2A60E070E080E89FEBBF
:10538000089526F41B16611D711D811D0C94F429CE
:105390000C940F2A990F0008550FAA0BE0E8FEEFB6
:1053A00016161706E807F907C0F012161306E407E9
:1053B000F50798F0621B730B840B950B39F40A26E2
:1053C00061F0232B242B252B21F408950A2609F4C0
:1053D000A140A6958FEF811D811D089597F99F67C4
:1053E00080E870E060E00895882371F4772321F06D
:1053F0009850872B762F07C0662311F499270DC08C
:105400009051862B70E060E02AF09A95660F771F26
:10541000881FDAF7880F9695879597F908959F3F2B
:1054200031F0915020F4879577956795B795880F5F
:10543000911D9695879597F908959FEF80EC0895B3
:1054400000240A9416161706180609060895002463
:105450000A9412161306140605060895092E0394DD
:10546000000C11F4882352F0BB0F40F4BF2B11F451
:1054700060FF04C06F5F7F4F8F4F9F4F089557FDB0
:105480009058440F551F59F05F3F71F04795880FB2
:1054900097FB991F61F09F3F79F087950895121649
:1054A00013061406551FF2CF4695F1DF08C01616F5
:1054B00017061806991FF1CF8695710561050894A6
:1054C00008950E94472AA0F0BEE7B91788F4BB27C9
:1054D0009F3860F41616B11D672F782F8827985FC4
:1054E000F7CF869577956795B11D93959639C8F353
:1054F0000895E894BB2766277727CB0197F908958D
:105500000E94CA2908F48FEF08950E94472A58F193
:105510009E5760F19851A0F0E9F0983020F5092EDF
:105520009927660F771F881F991F0A94D1F712C019
:10553000062E672F782F8827985F11F4000C07C07C
:10554000993FB4F38695779567959395D9F7611D43
:10555000711D811D3EF490958095709561957F4FEA
:105560008F4F9F4F089568940C947A2A0C94792A4F
:105570000E94CB2A0C942E2A0E94202A38F00E94E6
:10558000272A20F0952311F00C94EE290C941D2A63
:1055900011240C947A2A0E943F2A70F3959FC1F33C
:1055A000950F50E0551F629FF001729FBB27F00DD1
:1055B000B11D639FAA27F00DB11DAA1F649F662726
:1055C000B00DA11D661F829F2227B00DA11D621F75
:1055D000739FB00DA11D621F839FA00D611D221F2F
:1055E000749F3327A00D611D231F849F600D211D13
:1055F000822F762F6A2F11249F5750409AF0F1F096
:1056000088234AF0EE0FFF1FBB1F661F771F881FFE
:1056100091505040A9F79E3F510580F00C94EE291F
:105620000C947A2A5F3FE4F3983ED4F386957795FD
:105630006795B795F795E7959F5FC1F7FE2B880FA4
:10564000911D9695879597F908950E94472AE8F04D
:105650009E37E8F09639B8F49E3848F4672F782FD3
:105660008827985FF9CF86957795679593959539B3
:10567000D0F3B62FB1706B0F711D811D20F487958B
:105680007795679593950C94F4290C940F2A0C94B4
:105690007A2A19F416F40C941D2A0C940F2A0E94ED
:1056A000472AB8F39923C9F3B6F39F57550B87FFE1
:1056B0000E949A2B0024A0E640EA9001805856955B
:1056C000979528F4805C660F771F881F20F02617B7
:1056D0003707480730F4621B730B840B20293129EC
:1056E0004A2BA69517940794202531254A2758F769
:1056F000660F771F881F20F026173707480730F4FA
:10570000620B730B840B200D311D411DA09581F799
:10571000B901842F9158880F9695879508950E9416
:10572000612A30F09F3710F40C947A2A0C94F429F3
:105730000C940F2A91505040660F771F881FD2F7A4
:105740000895991B79E004C0991F961708F0961BDD
:10575000881F7A95C9F780950895A1E21A2EAA1B91
:10576000BB1BFD010DC0AA1FBB1FEE1FFF1FA21711
:10577000B307E407F50720F0A21BB30BE40BF50B0E
:10578000661F771F881F991F1A9469F76095709597
:10579000809590959B01AC01BD01CF010895EE0F5E
:1057A000FF1F0590F491E02D09940E94E02BA59F26
:1057B000900DB49F900DA49F800D911D112408950C
:1057C000A29FB001B39FC001A39F700D811D112442
:1057D000911DB29F700D811D1124911D0895F894A3
:0257E000FFCFF9
:0857E200020408100D0A00008A
:107E0000112484B714BE81FFF0D085E080938100F7
:107E100082E08093C00088E18093C10086E0809377
:107E2000C20080E18093C4008EE0C9D0259A86E02C
:107E300020E33CEF91E0309385002093840096BBD3
:107E4000B09BFECF1D9AA8958150A9F7CC24DD24C4
:107E500088248394B5E0AB2EA1E19A2EF3E0BF2EE7
:107E6000A2D0813461F49FD0082FAFD0023811F036
:107E7000013811F484E001C083E08DD089C08234E0
:107E800011F484E103C0853419F485E0A6D080C0E4
:107E9000853579F488D0E82EFF2485D0082F10E0AE
:107EA000102F00270E291F29000F111F8ED06801E7
:107EB0006FC0863521F484E090D080E0DECF843638
:107EC00009F040C070D06FD0082F6DD080E0C81688
:107ED00080E7D80618F4F601B7BEE895C0E0D1E017
:107EE00062D089930C17E1F7F0E0CF16F0E7DF06D8
:107EF00018F0F601B7BEE89568D007B600FCFDCFD4
:107F0000A601A0E0B1E02C9130E011968C91119780
:107F100090E0982F8827822B932B1296FA010C0160
:107F200087BEE89511244E5F5F4FF1E0A038BF0790
:107F300051F7F601A7BEE89507B600FCFDCF97BE46
:107F4000E89526C08437B1F42ED02DD0F82E2BD052
:107F50003CD0F601EF2C8F010F5F1F4F84911BD097
:107F6000EA94F801C1F70894C11CD11CFA94CF0C13
:107F7000D11C0EC0853739F428D08EE10CD085E9AC
:107F80000AD08FE07ACF813511F488E018D01DD067
:107F900080E101D065CF982F8091C00085FFFCCF94
:107FA0009093C60008958091C00087FFFCCF809118
:107FB000C00084FD01C0A8958091C6000895E0E648
:107FC000F0E098E1908380830895EDDF803219F02E
:107FD00088E0F5DFFFCF84E1DECF1F93182FE3DFCA
:107FE0001150E9F7F2DF1F91089580E0E8DFEE27F6
:047FF000FF270994CA
:027FFE00040479
:0400000300007E007B
:00000001FF
