:100000000C9438030C9455030C9455030C9455032D
:100010000C9455030C9455030C9455030C949503C0
:100020000C9455030C9455030C9455030C941E0E1C
:100030000C9455030C9455030C9455030C945503E0
:100040000C94A10D0C9455030C9437100C948D1046
:100050000C9455030C9455030C9455030C945503C0
:100060000C9455030C94550398259E25A125A42591
:10007000A925B325BB25272627262726C325C52541
:10008000CE25D725DF2527262726272627262726FC
:10009000E7252726F125F925FC2505260E26142619
:1000A000E410E710EC10EF10F210F510F810FB1050
:1000B000FE10011104111011101110111011101166
:1000C0001011101110110A1107110D11FE1B141C33
:1000D000321C141C391C5D1C421C481C501C0D0A8F
:1000E00053444C7320302E310D0A000D0A003D00A0
:1000F000244E005D0D0A005B302E313A005D0D0A82
:10010000005B544C4F3A005D0D0A002C005B4739F0
:10011000323A005D0D0A002C003A003330003238CC
:10012000005B47005D0D0A00204600205400204778
:10013000005B473830005B4733005B4732005B476A
:1001400031005B47300024242028766965772073CE
:10015000657474696E6773290D0A242320287669F3
:100160006577202320706172616D657465727329F3
:100170000D0A2447202876696577207061727365BF
:1001800072207374617465290D0A244920287669E8
:100190006577206275696C6420696E666F290D0A47
:1001A000244E2028766965772073746172747570A7
:1001B00020626C6F636B73290D0A24783D76616C45
:1001C00075652028736176652073657474696E6740
:1001D000290D0A244E783D6C696E6520287361767E
:1001E00065207374617274757020626C6F636B2923
:1001F0000D0A24432028636865636B2067636F647E
:1002000065206D6F6465290D0A245820286B696C80
:100210006C20616C61726D206C6F636B290D0A7EBE
:1002200020286379636C65207374617274290D0AE8
:100230002120286665656420686F6C64290D0A3F7B
:10024000202863757272656E74207374617475739F
:10025000290D0A6374726C2D782028726573657499
:10026000290D0A005D0D0A002C005B5052423A0035
:100270000D0A00496E76616C69642067636F64657E
:100280002049443A00556E646566696E656420666F
:10029000656564207261746500556E737570706F6A
:1002A0007274656420636F6D6D616E64004D6F6480
:1002B000616C2067726F75702076696F6C6174690C
:1002C0006F6E004C696E65206F766572666C6F7735
:1002D00000486F6D696E67206E6F7420656E616295
:1002E0006C656400416C61726D206C6F636B004ED5
:1002F0006F742069646C6500454550524F4D207203
:10030000656164206661696C2E205573696E672093
:1003100064656661756C74730056616C7565203C2C
:10032000203320757365630053657474696E6720AC
:1003300064697361626C65640056616C7565203C2C
:10034000203000496E76616C696420737461746555
:100350006D656E7400426164206E756D6265722019
:10036000666F726D617400457870656374656420B2
:10037000636F6D6D616E64206C6574746572006589
:1003800072726F723A20005D0D0A004469736162F7
:100390006C656400456E61626C65640043617574F0
:1003A000696F6E3A20556E6C6F636B65640027242D
:1003B00048277C2724582720746F20756E6C6F6344
:1003C0006B00526573657420746F20636F6E74697F
:1003D0006E7565005B000D0A0050726F62652066E5
:1003E00061696C0041626F727420647572696E6736
:1003F000206379636C6500486172642F736F667463
:10040000206C696D697400414C41524D3A20003EA8
:100410000D0A002C52583A002C4275663A002C0006
:100420002C57506F733A002C002C4D506F733A00CC
:100430003C436865636B003C416C61726D003C48F5
:100440006F6D65003C486F6C64003C52756E003CFB
:100450005175657565003C49646C6500290D0A009D
:10046000206D61782074726176656C2C20646567FC
:100470000020616363656C2C206465672F7365637E
:100480005E3200206D617820726174652C20646595
:10049000672F736563002C20737465702F64656724
:1004A000007A00790078002028003D0024002028F0
:1004B000686F6D696E672070756C6C2D6F66662C49
:1004C000206D6D290D0A00202868617264206C6916
:1004D0006D6974732C20626F6F6C290D0A2432329F
:1004E0003D002028736F6674206C696D6974732CED
:1004F00020626F6F6C290D0A2432313D0020286183
:1005000075746F2073746172742C20626F6F6C2924
:100510000D0A2432303D0020287265706F727420FD
:10052000696E636865732C20626F6F6C290D0A24F5
:1005300031343D00202861726320746F6C657261F4
:100540006E63652C20646567290D0A2431333D00F4
:1005500020286A756E6374696F6E206465766961C0
:1005600074696F6E2C20646567290D0A2431323D51
:1005700000290D0A2431313D0020287374617475FF
:1005800073207265706F7274206D61736B3A002016
:100590002870726F62652070696E20696E76657270
:1005A000742C20626F6F6C290D0A2431303D0020BD
:1005B000286C696D69742070696E7320696E766548
:1005C00072742C20626F6F6C290D0A24363D002056
:1005D000287374657020656E61626C6520696E7643
:1005E0006572742C20626F6F6C290D0A24353D00F2
:1005F000290D0A24343D00202864697220706F722E
:100600007420696E76657274206D61736B3A00298F
:100610000D0A24333D0020287374657020706F72BA
:100620007420696E76657274206D61736B3A002078
:1006300028737465702069646C652064656C6179E9
:100640002C206D736563290D0A24323D0020287328
:100650007465702070756C73652C207573656329E3
:100660000D0A24313D0024303D006F6B0D0A00005F
:1006700011241FBECFEFD8E0DEBFCDBF11E0A0E058
:10068000B1E0E8EBF6E502C005900D92A830B107A5
:10069000D9F726E0A8E0B1E001C01D92AD3DB20758
:1006A000E1F70E94F7210C945A2B0C94000084303F
:1006B000D0F490E0FC01E050FF4F2081222399F01C
:1006C000FC01E45FFE4F613029F48BB1282B2BB97C
:1006D000608308953BB1209523232BB91082FC0140
:1006E000E85FFE4F108208958AB18C638AB98BB19E
:1006F000837C8BB9F8941092B20083EF8093B3009F
:1007000082E08093B00086E08093B100E0E7F0E003
:1007100080818260808378940895F999FECF92BD9C
:1007200081BD81E08FBB80B508951F920F920FB6F7
:100730000F9211242F933F934F935F936F937F9367
:100740008F939F93AF93BF93CF93DF93EF93FF93D9
:10075000809110018F5F80931001811119C0C0E05A
:10076000D0E08C2FFE01E45FFE4F9081FE01E85F38
:10077000FE4F992319F090819F5F908390819F3F56
:1007800019F460E00E9457032196C430D10549F75F
:10079000FF91EF91DF91CF91BF91AF919F918F9199
:1007A0007F916F915F914F913F912F910F900FBE6D
:1007B0000F901F901895CF93DF939091F60592308C
:1007C00069F0D62FC82F0E944F110E9492156D2FED
:1007D0008FEF8C0FDF91CF910C945703DF91CF9166
:1007E00008958F929F92AF92BF92EF92FF920F93D4
:1007F0001F93CF93DF93C9EFD5E088EAE82E85E019
:10080000F82E09E216E06991799189919991F701A1
:1008100081909190A190B1907F010E94E328A50161
:1008200094010E943928F801619371938193919307
:100830008F01F6E0C530DF0731F7DF91CF911F91CF
:100840000F91FF90EF90BF90AF909F908F90089581
:100850009F92AF92BF92CF92DF92EF92FF920F934F
:100860001F93CF93DF935B018A017C01E40EF51E99
:10087000EC01912C6B01C81AD90AC6018C0F9D1F7F
:10088000CE15DF0589F00E948D03911008C0292D37
:10089000990C330B232F221F2227221F01C021E096
:1008A000982E920E8993E9CFC501800F911F0E9467
:1008B0008D0321E030E0981611F020E030E0C9010E
:1008C000DF91CF911F910F91FF90EF90DF90CF902C
:1008D000BF90AF909F900895F894F999FECF92BD84
:1008E00081BD81E08FBB80B58627482F082E000C84
:1008F000550B262F30E024233523232B39F06F3F6F
:1009000019F060BD84E006C084E104C0882321F0B2
:1009100060BD84E28FBBF99A789408959F92AF925C
:10092000BF92CF92DF92EF92FF920F931F93CF93DC
:10093000DF935C018A017B01E40EF51EEB01912C33
:100940006C01C61AD70ACE018C0D9D1DCE15DF0590
:1009500089F0911008C0292D990C330B232F221FE9
:100960002227221F01C021E06991922E960E0E943B
:100970006C04E9CF692DC501800F911FDF91CF91E4
:100980001F910F91FF90EF90DF90CF90BF90AF90AD
:100990009F900C946C04CF93DF93C0918805D09105
:1009A00089052097B9F081E080935E056091740518
:1009B0007091750580917605909177059B01AC014A
:1009C0000E94232A698B7A8B8B8B9C8B10928905D2
:1009D00010928805DF91CF9108952F923F924F9208
:1009E0005F926F927F928F929F92AF92BF92CF92BF
:1009F000DF92EF92FF920F931F93CF93DF93CDB7C8
:100A0000DEB7CA54D1090FB6F894DEBF0FBECDBF12
:100A1000209107052EAF309184053B8340918505D9
:100A20004C830091860510918705509174055B8B6E
:100A3000809175058C8B909176059D8BA0917705A3
:100A4000AE8BE0907005F0907105B0917205BA8799
:100A5000E0917305ED87F091F6052296FFAF22979E
:100A60002091E2042FA3309177043FAF40917504A9
:100A700021964FAF219780918805909189059A8B97
:100A8000898B90915F059AAFA0916005ABAFB09153
:100A90006105BCAFE0916205EDAF20916305309137
:100AA000640540916505509166052BA33CA34DA3B9
:100AB0005EA38091670590916805A0916905B0914A
:100AC0006A058EAB9FABA8AFB9AF20916B05309193
:100AD0006C0540916D0550916E052AAB3BAB4CAB5C
:100AE0005DAB30917C053F8B40917D05488F5091E7
:100AF0007E05598F80917F058A8F9091800599831B
:100B0000A0918105AA833090820520908305B09141
:100B10007604BB8FE0917805EC8FF0917905FD8F1D
:100B200020917A052E8F30917B053F8F8091E104D3
:100B30005FA1851709F4EEC649895A89452B09F04A
:100B40003DC25FAD8B8D581709F434C7A82EB12C68
:100B5000A9E2AA9DC001AB9D900D1124FC01ED56A8
:100B6000FE4FFA8BE98B80915E05882319F0109275
:100B70005E05BAC080915D058F5F853019F0809366
:100B80005D0502C010925D05E0915D0521E12E9F9B
:100B9000F0011124E85FFA4F89E28A9DA0018B9D44
:100BA000500D11244D565E4F4A01DA018C9180831D
:100BB00011964D915D916D917C911497DB01CA0165
:100BC00023E0880F991FAA1FBB1F2A95D1F78183A5
:100BD0009283A383B483D40115964D915D916D9159
:100BE0007C911897DB01CA0133E0880F991FAA1F77
:100BF000BB1F3A95D1F785839683A783B087D4012D
:100C000019964D915D916D917C911C97DB01CA0104
:100C100043E0880F991FAA1FBB1F4A95D1F7818710
:100C20009287A387B487D4011D966D917D918D9194
:100C30009C9150976B017C0153E0CC0CDD1CEE1CA9
:100C4000FF1C5A95D1F7C586D686E786F08A0E94A2
:100C5000E1286AAF7BAF8CAF9DAFF40125A136A12F
:100C600047A150A50E9439286BA37CA38DA39EA306
:100C70009B01AC0160E070E080EA9FE30E943928AC
:100C80006EAB7FAB88AF99AF2296FFAD2297F03263
:100C9000D1F42F89388D498D5A8D6F89788D898D42
:100CA0009A8D0E94232AD40151966D937D938D9342
:100CB0009C935497BF89BB8BE88DEC8BF98DFD8B92
:100CC0002A8D2E8B0DC0D40151966D917D918D9101
:100CD0009C9154970E94BA2A6B8B7C8B8D8B9E8B38
:100CE0001AAA1BAA1CAA1DAA29E22A9DF0012B9D63
:100CF000F00D1124ED56FE4FFE87ED8781A192A1E4
:100D0000A3A1B4A18D839E83AF83B8879C01AD015D
:100D100060E070E080E09FE30E9439286B017C0175
:100D20002296BFAD2297B03209F040C0E2E0E093D6
:100D30006F05AD85BE8595964D905D906D907C90CC
:100D4000989751968D909D90AD90BC905497A50129
:100D500094010E94232A9B01AC01C301B2010E94AD
:100D6000B0277B018A879D8720E030E0A9010E949F
:100D7000342887FF28C12D813E814F815885CA01C3
:100D8000B9010E94B127A30192010E94232A9B016D
:100D9000AC01C501B4010E94B0270E94BA2A6F8B32
:100DA000788F898F9A8F3B862C8603C110926F05AE
:100DB000ED85FE85F5A1F983AD85BE859696BC913E
:100DC000BA83ED85FE85F7A1FB87AD85BE85989634
:100DD000BC91BC87EB8DEF5FE23109F4E0E0FFAD41
:100DE000FE1789F029E22E9FF0011124ED56FE4FE7
:100DF00061897289838994890E94BA2A6F8B788F5E
:100E0000898F9A8F04C01F8A188E198E1A8E2F8987
:100E1000388D498D5A8D6F89788D898D9A8D0E9474
:100E2000232A2B013C0189E28A9DA0018B9D500D54
:100E300011244D565E4F59A348A3DA0151962D91C6
:100E40003D914D915C9154972D873E874F87588BEC
:100E5000A30192016D857E858F8598890E94B027B8
:100E6000A70196010E94232A29813A814B855C853E
:100E70000E94B12720E030E040E05FE30E94232A97
:100E8000362E272E89879A8720E030E0A9010E941C
:100E9000EB2918160CF0A0C0232D322D49855A8558
:100EA00069817A818B859C850E94EB2918160CF04C
:100EB00075C0E8A1F9A1858C968CA78CB0A0A30180
:100EC0009201C501B4010E94B027A70196010E94BA
:100ED000232A162F7C838AA398A3262F372FAC01B1
:100EE000632D722D89859A850E94EB291816ACF521
:100EF000C501B4010E94BA2A6C8F7D8F8E8F9F8F9F
:100F0000A50194016D857E858F8598890E9434287E
:100F1000811107C0F1E0F0936F051B830AA118A1AE
:100F200048C02D853E854F855889C501B4010E9472
:100F3000B027A70196010E94232A9B01AC01698179
:100F40007A818B859C850E94B0271B830AA118A1FA
:100F500069837A838B879C872CC02D813E814F814A
:100F60005885CA01B9010E94B127232D322D498528
:100F70005A850E94232AA30192010E94B1270E9450
:100F8000BA2A6C8F7D8F8E8F9F8F3B822C82098532
:100F90001A8539822A820B871C870BC022E0209396
:100FA0006F053B893C8F4C894D8F5D895E8F8E89A3
:100FB0008F8F1D8219861A861D861EC0ED82F986C6
:100FC0003B862C8619C0ED82F9863B862C861F8ACB
:100FD000188E198E1A8E10C09F899C8FA88DAD8F88
:100FE000B98DBE8FEA8DEF8F1D8219861A861D86F8
:100FF00019821A821B861C863EAD232F30E039A34E
:1010000028A346E0429FF001439FF00D1124ED51CB
:10101000FB4F80915D058283A989BA899596BC9121
:10102000B8ABE989FA89F6A1F9ABA989BA8997968B
:10103000BC912396BFAF2397E989FA89F0A524963E
:10104000FFAF24972EA93FA948AD59AD68A979A94A
:101050008B2F9F2F0E94B0276CA77DA78EA79FA7DD
:1010600020E030E0A9010E94342887FF04C01CA6BC
:101070001DA61EA61FA620916F052AA32B813C81C9
:10108000A80169817A818B859C850E943428811111
:1010900005C032E025963FAF259704C041E0259674
:1010A0004FAF259728A859A92B965FAF2B9723966A
:1010B0008FAD23972A968FAF2A9724963FAC24971B
:1010C0008EE3C82E83ECD82E8EE2E82E89E3F82E2C
:1010D00018A619A61AA61BA6460157019AA199237C
:1010E00021F0913009F485C0C2C0A989BA899196CE
:1010F0002D913D914D915C919497C701B6010E944D
:10110000232A2B013C0120E030E040E05FE30E9415
:10111000232A2B893C894D895E890E94B127A7012A
:1011200096010E94232A9B01AC01622D2B967FAD74
:101130002B972A968FAD2A97932D0E94B027262EA3
:101140002B967FAF2B972A968FAF2A97392E29811E
:101150003A814B855C850E94342887FF3DC02981F8
:101160003A814B855C8568A979A923968FAD239731
:1011700024969FAD24970E94B0279B01AC010E944A
:10118000B1276B017C012B893C894D895E896C8D6F
:101190007D8D8E8D9F8D0E94B1279B01AC01C70173
:1011A000B6010E9439286B017C012596BFAD2597B9
:1011B000BAA3EC8DEB8BFD8DFC8B2E8D2D8B3F8D93
:1011C0003E8B29804A812B964FAF2B975B852A96C1
:1011D0005FAF2A973C84EDC0A30192016B897C89A3
:1011E0008D899E890E94B1276B8B7C8B8D8B9E8B0A
:1011F000E0C02C8D3D8D4E8D5F8DC701B6010E94E4
:10120000232A9B01AC01622D2B967FAD2B972A964A
:101210008FAD2A97932D0E94B0272B013C012B8183
:101220003C81A8010E94342887FFBBC02B813C81F0
:10123000A801622D2B967FAD2B972A968FAD2A970A
:10124000932D0E94B0272C8D3D8D4E8D5F8D0E9479
:1012500039286B017C012B808C812B968FAF2B97CB
:101260002A960FAF2A97312E92E09AA3A2C0A9899D
:10127000BA8991962D913D914D915C919497C701BA
:10128000B6010E94232A2B013C012B893C894D8900
:101290005E890E94342887FF53C020E030E040E0A0
:1012A0005FE3C301B2010E94232A9B01AC016B8959
:1012B0007C898D899E890E94B027A70196010E9492
:1012C000232A9B01AC01622D2B967FAD2B972A968A
:1012D0008FAD2A97932D0E94B02726966FAF269741
:1012E00027967FAF279728968FAF289729969FAF8D
:1012F00029972D8139854A855D850E94EB2918162D
:10130000FCF4A30192016B897C898D899E890E94DE
:10131000B0276B8B7C8B8D8B9E8B26962FAC269764
:101320002796BFAD27972B96BFAF2B972896EFAD8B
:1013300028972A96EFAF2A9729963FAC299739C06C
:101340002D8139854A855D85622D2B967FAD2B9742
:101350002A968FAD2A97932D0E94B0279B01AC014E
:101360000E94B1276B017C012B893C894D895E89E4
:101370006F89788D898D9A8D0E94B1279B01AC0170
:10138000C701B6010E9439286B017C012D80F985C7
:101390002B96FFAF2B972A852A962FAF2A973D844D
:1013A00008C0242C2B965FAE2B972A966FAE2A97F7
:1013B000372CA701960168A579A58AA59BA50E944F
:1013C000B12768A779A78AA79BA79B01AC01C50194
:1013D000B4010E94EB291816D4F02CA53DA54EA50A
:1013E0005FA5622D2B967FAD2B972A968FAD2A97FE
:1013F000932D0E94EB2918164CF52EE333EC4EE2A8
:1014000059E3C501B4010E94B1274B015C0128A535
:1014100039A54AA55BA5C501B4010E94B0276B019F
:101420007C012D8139854A855D85622D2B967FADA6
:101430002B972A968FAD2A97932D0E94EB29181689
:101440000CF44CCE3AA130936F0503C04AA14093EF
:101450006F052BA13CA14DA15EA1622D2B967FAD06
:101460002B972A968FAD2A97932D0E94232A6AA341
:101470007CA788AB99AB0E941D286B017C016AADEB
:101480007BAD8CAD9DAD0E941D284B015C01A70179
:1014900096010E94B0270E94B2282B013C01A6E0D1
:1014A00088A199A1A89FF001A99FF00D1124ED51E9
:1014B000FB4F518240824114510409F090C02296A2
:1014C000BFAD2297B03209F08AC089819A81AB857D
:1014D000BC858093800590938105A0938205B0938D
:1014E00083058C8D9D8DAE8DBF8D809378059093F7
:1014F0007905A0937A05B0937B058B819C81D801F7
:101500008093840590938505A0938605B093870505
:101510008D819985AA85BD8580937005909371050D
:10152000A0937205B09373058F89988DA98DBA8D9C
:1015300080937C0590937D05A0937E05B0937F05F5
:10154000E989FA89F0938905E0938805FB8DF0938A
:1015500076042BA13CA14DA15EA12093630530939D
:10156000640540936505509366058EA99FA9A8ADB3
:10157000B9AD8093670590936805A0936905B09312
:101580006A059EAD90930705AFA1A093E204109267
:1015900074051092750510927605109277051092D9
:1015A0006B0510926C0510926D0510926E05C0923D
:1015B0005F05D0926005E0926105F0926205C70177
:1015C000B6010E943928E989FA8965A376A387A321
:1015D00090A70E94CB04FB8DF093750478C12AA9D3
:1015E0003BA94CA95DA968A579A58AA59BA50E94E0
:1015F000B12768A779A78AA79BA72AA13CA548A9D4
:1016000059A9C501B4010E94B0279B01AC0168A58E
:1016100079A58AA59BA50E9439284B015C012AA1C6
:101620003CA548A959A9C701B6010E94B027A50148
:1016300094010E94232A6AAB7BAB8CAB9DAB20EC60
:1016400031EE44E65EE4C501B4010E94232A0E9403
:101650001D280E94B228603D27E072078105910590
:1016600060F4A6E048A159A1A49FF001A59FF00D48
:101670001124ED51FB4F158252C0603ABFE07B0749
:101680008105910560F446E028A139A1429FF0014F
:10169000439FF00D1124ED51FB4F51E011C0603418
:1016A000AFE17A078105910568F446E028A139A1E8
:1016B000429FF001439FF00D1124ED51FB4F52E08A
:1016C00055830CC026E0A8A1B9A12A9FF0012B9F49
:1016D000F00D1124ED51FB4F33E03583A6E048A116
:1016E00059A1A49FF001A59FF00D1124ED51FB4FCE
:1016F0002581022E04C096958795779567950A9463
:10170000D2F7A20102C0440F551F2A95E2F7518378
:1017100040836115710551E08507910568F426E065
:10172000A8A1B9A12A9FF0012B9FF00D1124ED5122
:10173000FB4F7483638304C04FEF5FEF5483438395
:10174000BFA0B39456E0B51201C0B12C2D813985EC
:101750004A855D85622D2B967FAD2B972A968FAD9E
:101760002A97932D0E94EB291816BCF4822D2B96F4
:101770009FAD2B972A96AFAD2A97B32DE989FA89A9
:1017800085A396A3A7A3B0A7FAA1FAAF2CA52BAF68
:1017900038A93CAF49A94DAFB5C020E030E0A90160
:1017A000622D2B967FAD2B972A968FAD2A97932D7E
:1017B0000E94EB2918160CF090C089819A81AB85A4
:1017C000BC858093800590938105A0938205B0939A
:1017D00083058C8D9D8DAE8DBF8D80937805909304
:1017E0007905A0937A05B0937B058B819C81D80104
:1017F0008093840590938505A0938605B093870513
:101800008D819985AA85BD8580937005909371051A
:10181000A0937205B09373058F89988DA98DBA8DA9
:1018200080937C0590937D05A0937E05B0937F0502
:1018300089899A8990938905809388059B8D9093D7
:1018400076042BA13CA14DA15EA1209363053093AA
:10185000640540936505509366058EA99FA9A8ADC0
:10186000B9AD8093670590936805A0936905B0931F
:101870006A059FA190930705B092E2041092740547
:1018800010927505109276051092770510926B05EF
:1018900010926C0510926D0510926E05C0925F0556
:1018A000D0926005E0926105F0926205C701B60131
:1018B0000E943928A989BA8995966D937D938D9355
:1018C0009C9398970E94CB04BB8DB09375040E94A3
:1018D000E51588E08093F605F5C0EFADFB8DEF17B9
:1018E00079F08F2F8F5F823109F480E02B8D219664
:1018F0003FAD2197231303C021968FAF21978B8F84
:101900001A8A198A3B842C84ED80F9844FA14EAF4A
:10191000BFA20CC98B899C89AD89BE89809374054F
:1019200090937505A0937605B093770589819A8188
:10193000A32DB22D8093800590938105A0938205FD
:10194000B09383058C8D9D8DAE8DBF8D8093780572
:1019500090937905A0937A05B0937B058B819C8148
:10196000D8018093840590938505A0938605B09354
:101970008705C701AA85BD85809370059093710581
:10198000A0937205B09373058F89988DA98DBA8D38
:1019900080937C0590937D05A0937E05B0937F0591
:1019A00089899A8990938905809388059B8D909366
:1019B00076044DC08B899C89AD89BE89809374055E
:1019C00090937505A0937605B093770589819A81E8
:1019D000A32DB22D8093800590938105A09382055D
:1019E000B09383058C8D9D8DAE8DBF8D80937805D2
:1019F00090937905A0937A05B0937B058B819C81A8
:101A0000D8018093840590938505A0938605B093B3
:101A10008705C701AA85BD858093700590937105E0
:101A2000A0937205B09373058F89988DA98DBA8D97
:101A300080937C0590937D05A0937E05B0937F05F0
:101A400010928905109288058FAD809376048AAD37
:101A50009BADACADBDAD80935F0590936005A09349
:101A60006105B09362052BA13CA14DA15EA120931D
:101A700063053093640540936505509366058EA910
:101A80009FA9A8ADB9AD8093670590936805A09311
:101A90006905B0936A052AA93BA94CA95DA92093C1
:101AA0006B0530936C0540936D0550936E053EAD0C
:101AB000309307054FA14093E20421965FAD219733
:101AC00050937504C65BDF4F0FB6F894DEBF0FBEB0
:101AD000CDBFDF91CF911F910F91FF90EF90DF90DD
:101AE000CF90BF90AF909F908F907F906F905F90BE
:101AF0004F903F902F9008954091D90550E060910C
:101B0000DA0570E080E090E020E030E0E82FDA01D4
:101B1000082E02C0B595A7950A94E2F7A0FD3061A2
:101B2000DB0102C0B595A795EA95E2F7A0FD20621A
:101B300001968330910551F73093BB042093BA048A
:101B400008951F920F920FB60F9211248F939F93B7
:101B500085B19091BB0490718F7E892B85B915BC9E
:101B60009F918F910F900FBE0F901F9018958091AD
:101B70006F008D7F80936F0080918100887F8160EE
:101B8000809381001092BC048091DB058F3F21F48B
:101B90009091F70595FF11C09091F605943069F08A
:101BA00090E0009741F0EFE9FFE03197F1F700C0D6
:101BB00000000197F6CF81E001C080E09091E00441
:101BC000992359F09091E50592FF02C091E0892791
:101BD000882311F0299A089529980895CF93C1E098
:101BE000C093E0040E94B70D8BE2EDE5F5E0DF0164
:101BF0001D928A95E9F783E2EDEBF4E0DF011D9297
:101C00008A95E9F710928905109288051092E104EF
:101C100010920705C093E2041092BC040E947C0D50
:101C200085B18F7E9091BB04892B85B985B18F7D5D
:101C30009091BA04892B85B9CF9108951F920F9284
:101C40000FB60F9211242F933F934F935F936F938F
:101C50007F938F939F93AF93BF93EF93FF93809165
:101C6000BC048111A0C185B19091CC0490728F7D8C
:101C7000892B85B985B18F7E9091CB04892B85B94D
:101C80008091CA0486BD82E085BD81E08093BC045A
:101C900078948091DE049091DF04892B09F0ADC027
:101CA0008091E10490910705981709F49BC0E09199
:101CB000E1042E2F30E086E0E89FF0011124ED5181
:101CC000FB4FF093DF04E093DE04838194819093D3
:101CD000890080938800808191819093DA048093B9
:101CE000D904E2818091DB048E1761F1E093DB047B
:101CF00081E1E89FF0011124E85FFA4FF093DD04E1
:101D0000E093DC0485859685A785B089B695A7956F
:101D1000979587958093BD049093BE04A093BF04CC
:101D2000B093C0048093C1049093C204A093C304F1
:101D3000B093C4048093C5049093C604A093C704D1
:101D4000B093C804E091DC04F091DD0490818091AF
:101D5000BA0489278093CC0486E0829FD001839FB8
:101D6000B00D1124AD51BB4F15962C9181819281FC
:101D7000A381B481022E04C0B695A7959795879547
:101D80000A94D2F78093CD049093CE04A093CF040D
:101D9000B093D00485819681A781B085022E04C0BE
:101DA000B695A795979587950A94D2F78093D10415
:101DB0009093D204A093D304B093D40481859285E8
:101DC000A385B48504C0B695A795979587952A9560
:101DD000D2F78093D5049093D604A093D704B09300
:101DE000D8040BC00E94B70D9FB7F8948091F705F7
:101DF00084608093F7059FBFD6C08091060681302E
:101E0000B1F486B180729091A705891781F0109284
:101E100006068CE0E9EFF5E0A7E0B6E001900D9250
:101E20008A95E1F78091F70588608093F705109215
:101E3000CB044091BD045091BE046091BF047091E9
:101E4000C0048091CD049091CE04A091CF04B091B4
:101E5000D004840F951FA61FB71F8093BD049093D5
:101E6000BE04A093BF04B093C004E091DC04F091E1
:101E7000DD044585568567857089481759076A07C7
:101E80007B0768F520E12093CB044585568567855F
:101E90007089841B950BA60BB70B8093BD049093A0
:101EA000BE04A093BF04B093C00420818091F905C3
:101EB0009091FA05A091FB05B091FC0525FF04C0A7
:101EC0000197A109B10903C00196A11DB11D80931D
:101ED000F9059093FA05A093FB05B093FC0540919A
:101EE000C1045091C2046091C3047091C4048091F4
:101EF000D1049091D204A091D304B091D404840F62
:101F0000951FA61FB71F8093C1049093C204A0938E
:101F1000C304B093C4044091C5045091C6046091B9
:101F2000C7047091C8048091D5049091D604A09103
:101F3000D704B091D804840F951FA61FB71F8093B4
:101F4000C5049093C604A093C704B093C8048091BD
:101F5000F605843039F49091CB048091F8058923FB
:101F60008093CB048091D9049091DA0401979093E7
:101F7000DA048093D904892B69F41092DF0410925B
:101F8000DE048091E1048F5F8093E104863011F4D8
:101F90001092E1049091CB048091BB048927809337
:101FA000CB041092BC04FF91EF91BF91AF919F9130
:101FB0008F917F916F915F914F913F912F910F90F2
:101FC0000FBE0F901F9018958091E50582FF02C00B
:101FD000299A01C029988091F6058471A1F0809119
:101FE000BA048093CC048091BB048093CB0480918D
:101FF000D805880F845081958093CA0480916F0022
:10200000826080936F0008950F931F93CF93DF93A7
:102010008B012DE0829FC0011124EC01DE5F4CE0BA
:1020200050E0BE01C8010E942804892B69F48CE0AD
:10203000F80111928A95E9F74CE050E0B801CE0121
:102040000E948E0480E001C081E0DF91CF911F915A
:102050000F91089561E080E090E00E946C044DE4EF
:1020600050E068EA75E081E090E00C948E041F92E5
:102070000F920FB60F9211242F933F934F935F93BC
:102080006F937F938F939F93AF93BF93EF93FF9340
:102090008091C6008132B1F028F48831E1F40E94C9
:1020A00032172AC08F3341F08E37A9F49FB7F894C6
:1020B0008091F70582600BC09FB7F8948091F70577
:1020C000816005C09FB7F8948091F7058860809380
:1020D000F7059FBF11C0E091920191E09E0F9038EB
:1020E00009F490E020919101921731F0F0E0EF5E59
:1020F000FE4F808390939201FF91EF91BF91AF913A
:102100009F918F917F916F915F914F913F912F910F
:102110000F900FBE0F901F9018951F920F920FB641
:102120000F9211248F939F93EF93FF938091B904A3
:10213000E82FF0E0E758FB4F90819093C6008F5F47
:10214000803409F480E08093B90490917804891375
:1021500005C08091C1008F7D8093C100FF91EF91F8
:102160009F918F910F900FBE0F901F901895E09147
:10217000780491E09E0F903431F490E004C02091F7
:10218000F70524FD0FC02091B9042917C1F3F0E031
:10219000E758FB4F8083909378048091C100806260
:1021A0008093C1000895CF93C82F8FE793E00E94DA
:1021B00048128C2F90E0FC013197E631F10580F553
:1021C000E05BFF4F0C943A2B87E693E002C085E575
:1021D00093E00E9448122BC083E493E0FACF89E396
:1021E00093E0F7CF88E293E0F4CF89E193E0F1CF79
:1021F00088EF92E0EECF8FEE92E0EBCF84EE92E0AC
:10220000E8CF81ED92E0E5CF83EC92E0E2CF8DEA7A
:1022100092E0DFCF89E992E0DCCF85E892E0D9CF88
:1022200083E792E00E9448128C2F0E94131280E7ED
:1022300092E0CF910C944812EF92FF920F931F936C
:10224000CF93DF93CDB7DEB728970FB6F894DEBFF4
:102250000FBECDBF9E012F5F3F4F79018E01075FFB
:102260001F4FF901982F9170919386950E171F07B4
:10227000C9F7F80182918F01805D0E94B7100E1599
:102280001F05B9F728960FB6F894DEBF0FBECDBF75
:10229000DF91CF911F910F91FF90EF900895809162
:1022A0000506882341F09FB7F8948091F705826076
:1022B0008093F7059FBF08958F929F92AF92BF9230
:1022C000CF92DF92EF92FF920F931F93CF93DF9302
:1022D000CDB7DEB72A970FB6F894DEBF0FBECDBFDD
:1022E0006B017C01042F20E030E0A9010E9434281A
:1022F00087FF07C08DE20E94B710F7FAF094F7F855
:10230000F094102F123060F020E030E048EC52E4FE
:10231000C701B6010E94232A6B017C011250F2CF43
:1023200000FF0AC020E030E040E251E4C701B601FE
:102330000E94232A6B017C0120E030E040E05FE353
:10234000C701B6010E94B1270E94AB28E1E0F0E08E
:10235000EC0FFD1FE00FF11D2EE2208310E03AE0AC
:10236000832E912CA12CB12C61157105810591054D
:10237000A9F0101301C01F5FEE24E394F12CEC0EC2
:10238000FD1EE10EF11CA50194010E94182B605D59
:10239000F7016083B901CA011F5FE6CF80E3101720
:1023A00048F4E1E0F0E0EC0FFD1FE10FF11D808348
:1023B0001F5FF5CF10130BC081E0810FE1E0F0E06B
:1023C000EC0FFD1FE80FF11D1E5F80E380831123DA
:1023D00041F0FE01E10FF11D80810E94B710115004
:1023E000F6CF2A960FB6F894DEBF0FBECDBFDF91B1
:1023F000CF911F910F91FF90EF90DF90CF90BF9002
:10240000AF909F908F9008952091E50520FF08C020
:102410002BE832E441E25DE30E94232A44E001C05C
:1024200043E00C945C111F93CF93DF9300D01F9275
:10243000CDB7DEB7811109C080E30F900F900F90E8
:10244000DF91CF911F910C94B71090E02AE011E03A
:10245000190FE1E0F0E0EC0FFD1FE90FF11D622F15
:102460000E940C2B905D9083912F8111F0CF11234E
:1024700041F0FE01E10FF11D80810E94B710115063
:10248000F6CF0F900F900F90DF91CF911F9108958D
:10249000CF93DF93FC018491EF012196882321F0F3
:1024A0000E94B710FE01F7CFDF91CF910895FF9200
:1024B0000F931F93CF93DF9386E696E00E94481216
:1024C0008091D8050E9413128DE496E00E94481274
:1024D0008091DB050E9413128FE296E00E94481261
:1024E0008091D9050E94131286E196E00E9448125D
:1024F0008091D9050E941C118FE096E00E9448123D
:102500008091DA050E94131287EF95E00E9448122D
:102510008091DA050E941C1180EF95E00E9448121C
:102520008091E50582FB882780F90E9413128FECC9
:1025300095E00E9448128091E50586FB882780F986
:102540000E9413128FEA95E00E9448128091E505DF
:10255000881F8827881F0E9413128FE895E00E9429
:1025600048128091DC050E94131289E795E00E94D1
:1025700048128091DC050E941C1181E795E00E94C1
:1025800048126091DD057091DE058091DF05909124
:10259000E00543E00E945C1180E595E00E9448124E
:1025A0006091E1057091E2058091E3059091E40569
:1025B00043E00E945C1184E395E00E944812809100
:1025C000E50581700E94131287E195E00E94481290
:1025D0008091E505869581700E9413128DEF94E03D
:1025E0000E9448128091E50585FB882780F90E94AA
:1025F000131282EE94E00E9448128091E50583FB5D
:10260000882780F90E94131287EC94E00E944812F8
:102610008091E505829581700E9413128EEA94E004
:102620000E94481284E6F82EC0E008EA15E0D0E0E7
:102630008CEA94E00E9448128D2F8F0D0E94131295
:102640008AEA94E00E944812C230A1F0C330F1F04F
:10265000C13031F0F80160817181828193811EC0A7
:1026600020E030E040E752E4F80164857585868516
:10267000978509C020E030E041E655E4F801608D1F
:10268000718D828D938D0E94392808C0F80184A134
:1026900095A1A6A1B7A1BC01CD01905843E00E942D
:1026A0005C1187EA94E00E944812D13029F0D230C0
:1026B00031F085EA94E005C083EA94E002C081EA43
:1026C00094E00E944812C23051F0C33059F0C1303A
:1026D00019F086E994E008C083E894E005C081E73A
:1026E00094E002C080E694E00E9448128CE594E0F9
:1026F0000E944812DF5F0C5F1F4FD33009F098CF64
:10270000FAE0FF0ECF5F8CE8F8128FCFDF91CF9108
:102710001F910F91FF9008958C3041F0811104C0FA
:102720008AE696E00C9448120C94D31008954F92C8
:102730005F926F927F92AF92BF92CF92DF92EF92B1
:10274000FF920F931F93CF93DF93CDB7DEB76897B8
:102750000FB6F894DEBF0FBECDBF1091F705112361
:1027600009F4B1C1812F807609F46AC081E08093B9
:10277000F60587E094E016FF4EC015FF2AC00E94C0
:10278000481287EF93E00E94481286ED93E00E9482
:10279000481285EF91E0019739F0EFE9FFE03197BA
:1027A000F1F700C00000F7CF84ED93E00E944812DB
:1027B00082EC93E00E94481287E893E00E9448125E
:1027C0009FB7F8948091F7058F7E8093F7059FBFA0
:1027D00015C00E94481289ED93E00E94481286EDD0
:1027E00093E00E94481285EF91E00197E9F2EFE94A
:1027F000FFE03197F1F700C00000F7CF8091F705B7
:1028000084FFFCCF9FB7F8948091F7058F79809370
:10281000F7059FBF15C00E94481284EE93E00E9406
:10282000481286ED93E00E94481285EF91E00197EF
:1028300049F3EFE9FFE03197F1F700C00000F7CF6F
:1028400014FF04C081E08093F50557C110FFE7C075
:102850008CE0E9EFF5E0DE011D9601900D928A957E
:10286000E1F78091F6058430D9F040F48130D9F059
:1028700070F08230E1F480E394E017C0803151F0D1
:10288000803259F0883099F48FE494E00EC086E5E8
:1028900094E00BC08AE494E008C084E494E005C0AE
:1028A0008EE394E002C087E394E00E944812809196
:1028B000DC0580FD05C08091DC0581FF80C034C04F
:1028C00089E294E00E9448125E01FDE0AF0EB11C67
:1028D00098EAC92E95E0D92ECE0101967C0100E040
:1028E000F50161917191819191915F01F6014190A2
:1028F0005190619071906F010E94E328A3019201B1
:102900000E943928F70161937193819391937F011C
:102910000E940412023021F087E294E00E944812E3
:102920000F5F0330E9F6C7CF80E294E00E944812BF
:1029300085E3C82E86E0D82ECE0101967C0100E00A
:102940005701F60161917191819191916F012085FB
:102950003185428553850E94B1279B01AC01F70167
:1029600060817181828193810E94B027F701608329
:10297000718382839383023079F420914D063091E4
:102980004E0640914F06509150060E94B027F70125
:102990006083718382839383F4E0EF0EF11CF50171
:1029A00060817181828193810E940412023021F042
:1029B0008EE194E00E9448120F5F033009F6809187
:1029C000DC0582FF0EC088E194E00E9448128091ED
:1029D000770490917604891708F48E5E891B0E9413
:1029E00013128091DC0583FF0EC083E194E00E9406
:1029F00048129091910180919201891708F48058B2
:102A0000891B0E9413128FE094E00E9448129FB726
:102A1000F8948091F7058E7F8093F7059FBF13FF91
:102A200015C08091F605803149F480E28093F60567
:102A30000E94CB040E94ED04109205069FB7F89403
:102A40008091F705877F8093F7059FBF11FF1DC019
:102A50008091F605883089F480E18093F6050E9424
:102A6000ED040E94E40F8091E50581FF04C081E040
:102A70008093050602C0109205069FB7F8948091D6
:102A8000F7058D7F8093F7059FBF12FF1CC08091D3
:102A9000760490917704981761F0F9E28F9FC00156
:102AA00011248D569E4F892B21F088E08093F605E6
:102AB00002C01092F6059FB7F8948091F7058B7FBE
:102AC0008093F7059FBF8091F6058473B1F06896F7
:102AD0000FB6F894DEBF0FBECDBFDF91CF911F912F
:102AE0000F91FF90EF90DF90CF90BF90AF907F90CD
:102AF0006F905F904F900C94ED0468960FB6F89429
:102B0000DEBF0FBECDBFDF91CF911F910F91FF9020
:102B1000EF90DF90CF90BF90AF907F906F905F90DD
:102B20004F900895CF930E944F118091F605803108
:102B300019F481E080930506C9E2809176049091B2
:102B40007704981771F0C89FC00111248D569E4FCD
:102B5000892B39F00E9497138091F505882369F33A
:102B600004C08091F6058031A9F3CF910895CF93E9
:102B7000DF93EC018991882319F00E94B710FACFF6
:102B8000DF91CF910895A9EFB5E0EBE8F5E04D9125
:102B90005D916D917D91419351936193719385E026
:102BA000E739F807A1F708958CE1EBE8F5E0DF01DC
:102BB0001D928A95E9F7109276041092770481E0CD
:102BC00080938A051092750408952F923F924F9238
:102BD0005F926F927F928F929F92AF92BF92CF92AD
:102BE000DF92EF92FF920F931F93CF93DF93C091E9
:102BF0007704C11101C0C2E1C150D0917504DC1746
:102C000009F41DC1EC2EF12C29E2C29F8001112490
:102C10000D561E4FF801A588B688C788D08C61A1D3
:102C200072A183A194A19B01AC010E94B127F8017C
:102C300025A136A147A150A50E94232A4B018C0152
:102C40009B01AC01B501C6010E94342887FD02C07A
:102C50005401680189E28E9DF0018F9DF00D1124D1
:102C6000ED56FE4FC501D601818B928BA38BB48BA1
:102C7000C11101C0C2E1C150DC1761F029E22E9DF3
:102C8000C0012F9D900D11249C012D563E4F7901BE
:102C9000D9E233C080917604D81360C00E94CB047F
:102CA0005DC0AC2EB12CDA9DC001DB9D900D1124CE
:102CB000FC01ED56FE4F6F01C11101C0C2E1C150D0
:102CC000809176048C1302C00E94CB04DA9D8001AF
:102CD000DB9D100D11240D561E4FF8018588968836
:102CE000A788B08CA5019401618972898389948930
:102CF0000E943428811106C0760180917504C813A2
:102D0000D0CF2CC0F80161A172A183A194A19B0135
:102D1000AC010E94B127F80125A136A147A150A519
:102D20000E94232AF70121893289438954890E940C
:102D3000B1272B013C019B01AC01C501B4010E94EC
:102D4000EB29F80118162CF4418A528A638A748A96
:102D5000D3CF818A928AA38AB48ACECFD0917504C8
:102D6000F9E2DF9F800111240D561E4FC1E0CD0F07
:102D7000C23109F4C0E02090770489E2382EC215F0
:102D800009F45BC0CC2ED12C3C9CC0013D9C900D25
:102D900011249C012D563E4F7901F801418852883B
:102DA00063887488F90181889288A388B488A50112
:102DB0009401C301B2010E94342887FF24C0F801A6
:102DC00061A172A183A194A19B01AC010E94B127D2
:102DD000F80125A136A147A150A50E94232AA301ED
:102DE00092010E94B1272B013C019B01AC01C5015E
:102DF000B4010E94EB29181634F4F701418A528A73
:102E0000638A748ADC2F3C9CF0013D9CF00D1124F8
:102E1000ED56FE4F258936894789508D6189728923
:102E2000838994890E943428811101C0DC2FCF5FEF
:102E3000C23109F4C0E08701A2CFD0937504DF91BD
:102E4000CF911F910F91FF90EF90DF90CF90BF90A7
:102E5000AF909F908F907F906F905F904F903F903A
:102E60002F9008958091F70584FD16C09FB7F894C0
:102E70008091F70580618093F7059FBF8091F605EB
:102E8000847351F09FB7F8948091F7058062809326
:102E9000F7059FBF0C94B70D08952F923F924F9264
:102EA0005F926F927F928F929F92AF92BF92CF92DA
:102EB000DF92EF92FF920F931F93CF93DF93CDB7E3
:102EC000DEB7A1970FB6F894DEBF0FBECDBF8CE37F
:102ED000E1E5F6E0DF011D928A95E9F78DE0E3E197
:102EE000F6E0A2E5B6E001900D928A95E1F71D8E1D
:102EF00000E010E0C12CD12CE12C712CAA24A39469
:102F0000B12C662463948D8DE82FF0E0E357F94FE0
:102F10008080882009F4DFC09FEB980D9A3108F07B
:102F2000CCC58F5F8D8FBE01675E7F4FCE014D9602
:102F30000E94E31D882309F4C2C5298C3A8C4B8C6E
:102F40005C8CC201B1010E94FA2A0E94B228962E1E
:102F500070E080E090E00E94E3289B01AC01C20198
:102F6000B1010E94B02720E030E048EC52E40E941A
:102F7000232A0E94902A0E94B228B7E48B1621F0DF
:102F8000EDE48E1629F160C0F1E09F1639F022E3DE
:102F900092129FC58AE08093510608C0711091C5B6
:102FA00090925206FF24F39482E0782E662311F06B
:102FB00087E1B4C5C5010F2C02C0880F991F0A9480
:102FC000E2F79C012C213D21232BD9F185E1A6C5F7
:102FD0006111EECF92E1991609F1991558F0A2E02E
:102FE0009A16A1F0B1E19B16B1F0911072C56092F2
:102FF00059060EC0E6E49E16A1F0F7E49F16A1F074
:1030000022E3921266C560925E0610C09092590645
:10301000B8E0FB2E0BC060925D0608C010925D0602
:1030200005C010925C0602C060925C06C5010F2CC0
:1030300002C0880F991F0A94E2F7960128233923CA
:10304000C3CFC82AD92A5FCF84E5881681F098E5D6
:10305000891691F0A6E48A123CC520925F06309250
:1030600060064092610650926206F12C11C0909267
:103070008006A9E0FA2E0CC02092810630928206CA
:103080004092830650928406FAE0FF2EEE24E394E9
:1030900045010F2C02C0880C991C0A94E2F7C40168
:1030A00080239123892B09F00EC581E693E00F2C34
:1030B00002C0959587950A94E2F780FF09C020E049
:1030C00030E0A901C201B1010E94342887FDFDC48E
:1030D0000829192918CFEE2021F0711002C0E2E072
:1030E0007E2E05FF0EC08091700690917106A09112
:1030F0007206B091730680389649A849B1050CF064
:10310000E6C480915306813031F4F2E07F1232C080
:1031100000FFE3C42FC08091140681112BC000FF73
:1031200013C080915406813029F523E333E34BEC3F
:1031300051E460915F067091600680916106909104
:1031400062060E94232A0EC020E030E040E752E4ED
:10315000609124067091250680912606909127069D
:103160000E94392860935F06709360068093610621
:103170009093620610FD10C0809120069091210668
:10318000A0912206B091230680937C0690937D0641
:10319000A0937E06B0937F0680915106813029F47A
:1031A00006FD02C08CE1BAC40F7B809154068130C9
:1031B00061F08CE0E5E3F6E0DE011D9601900D92F2
:1031C0008A95E1F7C7FC2FC036C071E5872E76E0FF
:1031D000972EA12CB12C4E2C512CC2010A2C02C0CE
:1031E000959587950A94E2F780FF12C023E333E3B5
:1031F0004BEC51E4D401D0966D917D918D919C91D1
:10320000D3970E94232AF40160AB71AB82AB93ABDE
:10321000FFEFAF1ABF0A24E0820E911C83E0A816CC
:10322000B104D9F6C6CF80915806873028F5909121
:103230001906891323C0F090510692E0F91629F07F
:10324000A8E0FA1609F4D4C042C1EE2009F48FC0F8
:10325000C80180759927892B09F4A4CF6091740661
:103260007091750680917606909177060E94FA2AF1
:103270000E94B228673058F08DE150C4BE01635FF0
:103280007F4F0E9404108111D6CF87E047C4809100
:103290006F06843109F06DC00F7A662309F46FC0A0
:1032A000FF24FA94F60EBE016F5F7F4F8F2D0E94B0
:1032B0000410882351F360906F0620904D063090E3
:1032C0004E0640904F065090500661E5862E66E00F
:1032D000962EFE0131966F0183E196E09F8F8E8FCF
:1032E000A12CB12CAE2DB0E0B9A3A8A388A199A1BF
:1032F0000A2C02C0959587950A94E2F780FD42C09A
:10330000FFEFAF1ABF0A24E0820E911C84E0C80EC2
:10331000D11CAE8DBF8D1496BF8FAE8FB3E0AB16B0
:10332000B10421F7D0905206E5E0DE1609F46FC132
:10333000F2E07F12B1C1DD2009F46CC120E030E081
:10334000A90160915F06709160068091610690917D
:1033500062060E943428882309F4BFC321E0D216F4
:1033600009F458C184E0D8129DC1E11057C18AE127
:10337000D5C3823009F0ADC307FDABC38DCFF0904C
:10338000580691CFB4E16B1228C0EE8DFF8D26A5B3
:1033900037A540A951A966897789808D918D0E94B2
:1033A000B027D401D0962D913D914D915C91D3974A
:1033B0000E94B027F6016083718382839383F2E0D9
:1033C000AF129ECFA20191010E94B027D6016D934A
:1033D0007D938D939C93139793CFF40180A991A92A
:1033E000A2A9B3A9F60180839183A283B38388CF76
:1033F000EE2009F4BCCF20904D0630904E06409050
:103400004F065090500643E1842E46E0942EFE0174
:103410003D96FF8FEE8F51E5C52E56E0D52EA12C9F
:10342000B12C8E2D90E099A388A388A199A10A2C94
:1034300002C0959587950A94E2F780FF2AC0AE8D69
:10344000BF8D2D913D914D915C91F40166897789F5
:10345000808D918D0E94B027D601D0962D913D91FF
:103460004D915C91D3970E94B027F60160AB71AB90
:1034700082AB93ABF2E0AF1216C0A20191010E94A1
:10348000B027D601D0966D937D938D939C93D3975F
:103490000AC0F40186A597A5A0A9B1A9F60180AB41
:1034A00091ABA2ABB3ABFFEFAF1ABF0A24E0820E21
:1034B000911C8E8D9F8D04969F8F8E8F94E0C90EE8
:1034C000D11CA3E0AA16B10409F0AFCF9EC0EE2034
:1034D00009F41FC36090550620904D0630904E06AB
:1034E00040904F065090500623E1822E26E0922E07
:1034F00031E5C32E36E0D32EFE013D96FF8FEE8FD1
:10350000A12CB12C8E2D90E099A388A388A199A11C
:103510000A2C02C0959587950A94E2F780FD0BC0AE
:10352000F40186899789A08DB18DF60180AB91ABAE
:10353000A2ABB3AB45C0F7E0FF1609F441C0611080
:103540002CC0D4019E962D913D914D915C91D197C7
:10355000EE8DFF8D60817181828193810E94B12700
:10356000D601D0962D913D914D915C91D3970E94BB
:10357000B127F60160AB71AB82AB93ABF2E0AF1257
:103580001FC0A20191010E94B127D601D0966D9370
:103590007D938D939C93D39713C0F401268937892B
:1035A000408D518DD601D0966D917D918D919C91DC
:1035B000D3970E94B127F60160AB71AB82AB93AB9E
:1035C000FFEFAF1ABF0A24E0820E911C84E0C80E00
:1035D000D11CAE8DBF8D1496BF8FAE8FB3E0AB16EE
:1035E000B10409F093CF7FC2F7E0FF1609F486C259
:1035F00023E0F2120AC0712CBE016F5F7F4F86E09C
:103600000E940410882309F440CEF12C8BCEE110E7
:1036100062C242C0EE2009F441C044C02091290694
:1036200030912A0640912B0650912C06609181061C
:103630007091820680918306909184060E943428BE
:10364000811130C020918506309186064091870611
:103650005091880660912D0670912E0680912F065C
:10366000909130060E94342881111CC02091890657
:1036700030918A0640918B0650918C0660913106FC
:103680007091320680913306909134060E9434285E
:10369000811108C081E242C2711004C00E7D1C7FFE
:1036A000712C02C00E7D107E012B09F018C2809192
:1036B00053068093140620E030E040E752E4609126
:1036C0005F067091600680916106909162060E948B
:1036D000232A6093240670932506809326069093F0
:1036E00027068091800680932806809151068130BC
:1036F000B9F08091560680931706809158069091F4
:103700001906981709F468C0809319068CE0FE0129
:103710003D96A5E3B6E001900D928A95E1F75CC075
:103720008091F605823029F320907406309075065A
:10373000409076065090770620E030E040EA51E471
:10374000C201B1010E94232A0E941E290E94B228B0
:103750004B015C010E94921520E030E04AE754E4FE
:10376000C201B1010E94232A1B012C0182E3889D22
:10377000B001899D700D112480E090E00E94E12845
:103780009B01AC01C201B1010E94B0270E941E2919
:103790000E94B22861157105D9F0AFE9BFE0119719
:1037A000F1F700C0000061507109F4CF0E94971337
:1037B000B1E08B1A91088091F50581119ACFEFEF56
:1037C000F0E722E0E150F0402040E1F700C00000C7
:1037D0008114910459F78DCF809155068093160678
:1037E000E09151068E2F90E0FC013297E930F1050F
:1037F00008F063C0EA59FF4F0C943A2BADE0FA9EF3
:10380000C00111244CE050E0BE016F5F7F4F9E5F0E
:103810000E948E0480911906F8124FC08CE0FE01C0
:103820003196A5E3B6E019C0772049F020E040E0EA
:1038300050E060E87FEB81E896E00E94971E20E070
:1038400040E050E060E87FEBCE0101960E94971EB9
:103850008CE0FE013196A9E2B6E001900D928A95C6
:10386000E1F72BC04CE050E069E276E08EE492E0B4
:1038700006C04CE050E069E276E08BE592E00E9401
:103880008E041BC08CE0E1E8F6E0A1E4B6E0E5CFF1
:103890008CE0E1E4F6E0DF011D928A95E9F70DC0C6
:1038A0008CE0E9EFF5E0DF011D928A95E9F70E94CF
:1038B000D4150E94C3150E94F10380915206809393
:1038C0001306B2E07B12BFC0813051F018F0843093
:1038D000B1F0B0C020E040E050E060E87FEB0AC00B
:1038E0004091240650912506609126067091270686
:1038F0002091140681E896E00E94971E9BC03090AC
:10390000140640902406509025066090260670907C
:1039100027068091F605823009F48CC00E9492152A
:103920002090050686B180729091A705891751F005
:103930009FB7F8948091F70580648093F7059FBF47
:103940000E9497138091F505811174C0232DB30156
:10395000A20181E896E00E94971E81E0809306060E
:103960009FB7F8948091F70582608093F7059FBF19
:103970000E9497138091F50581115CC08091F60536
:10398000877FB1F780910606813041F49FB7F894A4
:103990008091F70580648093F7059FBF0E9497137D
:1039A0008091F505811146C00E94EE0D0E94D4154C
:1039B0000E94C31507E016E088EAC82E85E0D82EDD
:1039C00091E8E92E96E0F92EF801619171918191CB
:1039D00091918F01D6018D909D90AD90BD906D011C
:1039E0000E94E328A50194010E943928F701619300
:1039F0007193819391937F0183E196E08017910702
:103A000019F7232DB301A20181E896E00E94971EC9
:103A10009FB7F8948091F70582608093F7059FBF68
:103A20000E9492158091F505811104C0209205062F
:103A30000E943D278CE0E1E8F6E0A9E2B6E00190C3
:103A40000D928A95E1F78091590680931A06882392
:103A500069F00E9492151092050680911A06823034
:103A600019F40E94321702C010921A0660915C0687
:103A700060931D0670E08091800690E00E94DB0359
:103A800080915D0680931E06813039F480E090E0DD
:103A90000E943A270E94E40F06C081E090E00E9455
:103AA0003A270E94B70D80915E068130D1F4809153
:103AB000800690E00E94C32114C081E02FC082E004
:103AC0002DC088E12BC089E129C084E027C08BE1AB
:103AD00025C084E123C08FE121C086E11FC084E2BC
:103AE0001DC080E01BC095E0F91205C0BE016F5FEC
:103AF0007F4F87E085CDA7E0FA1207C0809152067C
:103B0000823008F482CD8EE109C0B3E0FB127DCD96
:103B100073CDE5E0FE1268CD712CE8CFA1960FB60B
:103B2000F894DEBF0FBECDBFDF91CF911F910F91F3
:103B3000FF90EF90DF90CF90BF90AF909F908F90CD
:103B40007F906F905F904F903F902F900895CF930C
:103B5000DF9321E5829FC0011124EC01DD5F40E588
:103B600050E0BE018DE896E00E942804892B59F4AC
:103B700010928D0640E550E06DE876E0CE010E949F
:103B80008E0480E001C081E0DF91CF910895CF9352
:103B9000C0E08C2F0E94A71D811104C087E00E9405
:103BA000D3100CC080918D06882341F08DE896E0FB
:103BB0000E94B7150E944D170E948C13CF5FC23030
:103BC00041F7CF9108958F929F92AF92BF92CF927B
:103BD000DF92EF92FF920F931F93CF93DF937C01BD
:103BE0006B01DC01CC91D0E0FE01E357F94F8081FD
:103BF0008D3229F4EF012296818101E009C08B32D8
:103C000019F0C257D94F03C0EF012296818100E01D
:103C1000912CF0E010E020E030E0A9015E01E0ED41
:103C2000E80FEA30D0F4FF5FF93098F491101150AA
:103C3000A5E0B0E00E94402BDC01CB01880F991F6A
:103C4000AA1FBB1F9C01AD012E0F311D411D511D2F
:103C50000AC0911008C01F5F06C0EE3F41F49110EA
:103C600006C0992493942196D5018C91D7CFFF2338
:103C700009F44FC0CA01B9010E94E1284B015C015F
:103C800020E030E0A9010E943428882349F11F3F39
:103C900064F42AE037ED43E25CE3C501B4010E941D
:103CA000232A4B015C011E5FF2CF1F3F59F42DEC1C
:103CB0003CEC4CEC5DE3C501B4010E94232A4B01AE
:103CC0005C010EC0112361F020E030E040E251E4DD
:103CD000C501B4010E94232A4B015C011150F2CFAF
:103CE000002351F0B7FAB094B7F8B094F60180828F
:103CF0009182A282B38206C0D6018D929D92AD922E
:103D0000BC921397CD58D640C150F701C08381E0D3
:103D100001C080E0DF91CF911F910F91FF90EF9054
:103D2000DF90CF90BF90AF909F908F9008952F928B
:103D30003F924F925F926F927F928F929F92AF923B
:103D4000BF92CF92DF92EF92FF920F931F93CF9388
:103D5000DF93CDB7DEB7E8970FB6F894DEBF0FBE9E
:103D6000CDBF7C01142F052F362E272E28AF809132
:103D7000F605823009F4EEC20E9497138091F50592
:103D80008111E8C2209176042FAB30918A0538ABBF
:103D9000231303C00E944F11EFCF809177048DA7AA
:103DA000E82FF0E0F8A3EF8F29E2829FF0011124C1
:103DB000ED56FE4F158616861786108A15A216A296
:103DC00017A210A6108289E996E7A6E9BEE781A3AB
:103DD00092A3A3A3B4A3EB8EFC8E48EA55E05FA7A1
:103DE0004EA7CE010D969EA38DA32BE835E03AABEE
:103DF00029ABAE014F5F5F4F5AA349A38DA529E2BE
:103E0000829FC00111249CAB8BAB5AA749A72BE81A
:103E100035E03CA32BA348EA55E058A74FA3E12C7B
:103E2000F12C6F01CF010D969CA78BA7B596FE8F45
:103E3000ED8FEB8DFC8D6191719181919191FC8F52
:103E4000EB8FEFA1F8A54190519061907190F8A788
:103E5000EFA3A30192010E94232A0E94F029EDA161
:103E6000FEA16193719381939193FEA3EDA3EBA1C6
:103E7000FCA181909190A190B190FCA3EBA3681953
:103E800079098A099B099B01AC0197FF07C022278A
:103E90003327A901261B370B480B590BEBA9FCA9AB
:103EA000EE0DFF1DED56FE4F218332834383548375
:103EB000EBA5FCA580809180A280B380821693063A
:103EC000A406B50610F449015A01EBA5FCA58082B1
:103ED0009182A282B3820E94E328A30192010E94F0
:103EE00039282B013C01E9A5FAA5619371938193CF
:103EF0009193FAA7E9A720E030E0A9010E943428B5
:103F000087FF04C0F601808180628083A301920153
:103F1000C301B2010E94232AED8DFE8D20813181E3
:103F2000428153810E94B127ED8DFE8D60837183A4
:103F300082839383F4E0EF0EF11C2CE0E216F1048F
:103F400009F077CF0E94BA2A2B013C01ED8DFE8D3E
:103F5000608371838283938389288A288B2809F45C
:103F6000F2C120E030E0A901612F702F832D922D46
:103F70000E94342887FD22C0F8ADFF2361F0212F75
:103F8000302F432D522DC301B2010E943928162F24
:103F9000072F382E292E20E030E040E85FE3612F24
:103FA000702F832D922D0E94342887FF0DC010E0C2
:103FB00000E080E8382E9FE3292E06C019E906E7C5
:103FC00026E9322E3EE7232EA301920160E070E045
:103FD00080E89FE30E9439286BAB7CAB8DAB9EAB36
:103FE0009E01235F3F4F3A8F298F812C912C5401E2
:103FF00029E24F8D58A1249FC001259F900D1124C7
:10400000FC01EC54FE4FFC8FEB8FE9A1FAA1C080BC
:10401000D180E280F38020E030E0A901C701B60141
:104020000E943428882309F478C0A70196016BA95F
:104030007CA98DA99EA90E94232A2B013C01E9A1FC
:10404000FAA160837183828393839B01AC0160E05A
:1040500070E080E89FE30E9439286B017C01E894BE
:10406000F7F8EEA5FFA52485358546855785C70158
:10407000B6010E94232A6D8F7BA38DA39FA3212FBE
:10408000302F432D522D0E94EB29181624F41D8F3A
:104090000BA33DA22FA2EB8DFC8D30802180F281FD
:1040A000F9A7EB8DFC8DF381FBA7EEA5FFA5208D75
:1040B000318D428D538DC701B6010E94232A7B01A9
:1040C0008C019B01AC01632D722D89A59BA50E94DB
:1040D000342887FF04C0E32CF22C09A51BA5C701D7
:1040E000D801EB8DFC8D80839183A283B383E9A9F2
:1040F000FAA92485358546855785C301B2010E94FA
:10410000232A9B01AC01C501B4010E94B0274B01D9
:104110005C011D8D0BA13DA02FA029A13AA12C5F10
:104120003F4F3AA329A349A95AA94C5F5F4F5AAB05
:1041300049AB8EA59FA504969FA78EA7E98DFA8D02
:10414000E217F30709F061CFFDA52FA9F21313C001
:1041500089E24F8D58A1849FF001859FF00D1124B5
:10416000ED56FE4F118A128A138A148A118E128E0E
:10417000138E148E58C0A501940160E070E080E8B1
:104180009FE30E94B02720E030E040E05FE30E9420
:10419000232A0E94BA2A6B017C0189E22F8D38A163
:1041A000829FF001839FF00D1124ED56FE4F209168
:1041B000DD053091DE054091DF055091E00561A1FC
:1041C00072A183A194A10E94232AA70196010E94B3
:1041D000232A4B015C01A701960160E070E080E8B2
:1041E0009FE30E94B0279B01AC01C501B4010E946E
:1041F00039286B017C0120E030E0A9010E943428BD
:1042000087FF03C0C12CD12C760189E24F8D58A1C4
:10421000849FF001859FF00D1124ED56FE4FC18E55
:10422000D28EE38EF48E212F302F432D522D612F0D
:10423000702F832D922D0E94232A7B018C0189E20D
:104240002F8D38A1829FF001839FF00D1124ED5630
:10425000FE4FC701D801858F968FA78FB0A3B18C71
:10426000C28CD38CA48C6090A3057090A405809020
:10427000A5059090A6059301A401B701C8010E946D
:10428000342887FF05C07E2D6F2D902F812F04C00D
:10429000762D672D982D892D272F362F492F582FB2
:1042A0006B2D7C2D8D2D9A2D0E94342887FD11C0F9
:1042B0009301A401B701C8010E94342887FF05C0FB
:1042C000BE2CCF2CD02EA12E04C0B62CC72CD82C9F
:1042D000A92C89E24F8D58A1849FF001859FF00D94
:1042E0001124ED56FE4F8B2D9C2DAD2DBA2D858BB7
:1042F000968BA78BB08F8CE0FE013196A7E9B5E0D5
:1043000001900D928A95E1F7C701D8018093A3052A
:104310009093A405A093A505B093A6058CE0FE019B
:104320003D96ABE8B5E001900D928A95E1F758A96A
:1043300050937704852F8F5F823109F480E080935A
:104340008A050E94E5158091F605811103C088E079
:104350008093F605E8960FB6F894DEBF0FBECDBF8A
:10436000DF91CF911F910F91FF90EF90DF90CF9051
:10437000BF90AF909F908F907F906F905F904F9085
:104380003F902F900895CF93DF9300D000D01F92DD
:10439000CDB7DEB790917C00907F90937C00909198
:1043A0007C00892B80937C0080917A0080648093CC
:1043B0007A0080917A0086FDFCCF80917800909100
:1043C00079004AE0BE016F5F7F4F0E947B27CE01DC
:1043D00001960E94B71584E091E00E94B7150F90F6
:1043E0000F900F900F900F90DF91CF910895CF9382
:1043F000DF93CDB7DEB761970FB6F894DEBF0FBE7F
:10440000CDBF8091C00082608093C0001092C50033
:1044100080E18093C4008091C10080618093C100DD
:104420008091C10088608093C1008091C100806844
:104430008093C10080E090E00E948D03813009F0FC
:104440003DC44DE450E061E070E088EA95E00E94F0
:104450002804892B09F432C410E0BE016F5F7F4F3E
:10446000812F0E940410811103C087E00E94D310A5
:104470001F5F183091F7249A219A259A8091810024
:104480008F7E80938100809181008860809381007D
:10449000809180008C7F80938000809180008F705D
:1044A0008093800080916E00887F80936E0014BCA2
:1044B00015BC80916E00816080936E0080917A00BF
:1044C000876080937A0080917C00806480937C0078
:1044D00080917A00806880937A0080917A0080646D
:1044E00080937A008EE1E5EFF5E0DF011D928A9579
:1044F000E9F781E08093F50578949091E50594FDC6
:104500008093F605F3E1CF2EF6E0DF2E7724739447
:10451000A2E0EA2EB3E06B2E80919201809391018C
:104520008EE3F60111928A95E9F765E376E080E083
:104530000E940410811103C087E00E94D3100E94E2
:1045400074033D988091E50587FF04C0459810925B
:10455000A70504C0459A80E28093A7050E94D41560
:104560000E94EE0D0E94C3150E94F1031092F50502
:104570001092F7058091E50581FF03C07092050652
:1045800002C0109205068EED90E00E9448128091C4
:10459000F605813069F484ED93E00E9448128EEABA
:1045A00093E00E94481287E893E00E9448122EC0D0
:1045B0001092F6050E94C71D29C08D30E1F011232D
:1045C00009F45CC311E0893209F410E09091910183
:1045D000809192019817E1F0E92FF0E0EF5EFE4F35
:1045E00080819F5F903809F490E0909391018F3F14
:1045F00079F08A3011F7E02FF0E0E357F94F10829D
:104600000E949713F090F505FF2059F000E0DDCFF0
:104610000E944F110E9497138091F5058823B1F2F3
:104620007BCF80918D06882389F3843209F01BC3E8
:10463000798A80918E06833409F472C02CF4882321
:1046400049F0843251F0A6C08734B9F0883509F4B6
:1046500088C0A0C086E491E060C0E98A80918F069E
:104660008111F5C28091F6058073F82E19F0E8E00B
:10467000FE2EF5C20E945712F2C2E98A80918F067F
:104680008111E5C280911306823091F038F48823BD
:1046900061F08130A1F48EE391E00FC0833059F0D6
:1046A000853069F481E391E008C082E491E005C0BF
:1046B0008AE391E002C086E391E00E9448128EE214
:1046C00091E00E944812809119068A5C0E941312A0
:1046D0008BE291E00E944812809128060E941312FA
:1046E00088E291E00E9448126091240670912506AC
:1046F00080912606909127062091E50520FF08C0AD
:104700002BE832E441E25DE30E94232A41E001C04C
:1047100040E00E945C1184E291E00E9448129FC236
:10472000E98A80918F06811192C28091F6058230CC
:1047300049F40E94321784ED93E00E9448128BE8FE
:1047400093E00AC0811193CFE092F60584ED93E0E7
:104750000E94481284E993E00E94481287E893E09F
:10476000DCCFE98A80918F06811171C28091F605B4
:10477000813009F074C284ED93E00E9448128CE904
:1047800093E00E94481287E893E00E94481210923A
:10479000F60565C29091F605923008F068CF88342E
:1047A00009F482C01CF4833241F0F1C0893409F469
:1047B00082C08E3409F4C0C0EAC0E98A80918F06B5
:1047C000811145C210E0BE016F5F7F4F812F0E94B3
:1047D0000410811104C087E00E94D3101CC181E243
:1047E00091E00E944812163029F0173041F48BE115
:1047F00091E002C08EE191E00E94481204C086E37D
:10480000810F0E94131289E191E00E944812CE01AB
:1048100001965C0100E0D5016D917D918D919D9196
:104820005D010E940412023019F087E191E002C09C
:1048300083E191E00E9448120F5F033061F71F5F30
:10484000183009F68DE091E00E94481271E4A72E1D
:1048500076E0B72E10E0F50161917191819191910F
:104860005F010E940412123019F08BE091E002C047
:1048700087E091E00E9448121F5F133061F781E0EA
:1048800091E00E94481260914D0670914E06809111
:104890004F06909150060E9404128DEF90E00E9406
:1048A00048120E943D27DBC18091E50584FFC7C106
:1048B0000E94C71DD4C1E98A80918F0681111FC053
:1048C00040E550E06EEA73E08DE896E00E9428042F
:1048D000892B51F410928D0640E550E06DE876E0AA
:1048E0008EEA93E00E948E0487EF90E00E944812C7
:1048F0008DE896E00E94B71583EF90E00ECF698AAD
:104900008D3309F0A4C183E0282F30E0F901E3578B
:10491000F94F9081D901A657B94F9C938F5F908131
:104920009111F2CF898B40E550E06DE876E08EEA98
:1049300093E00E948E0493C1E98A80918F068111D1
:1049400022C010E0812F0E94A71D811104C087E0C2
:104950000E94D31013C080EF90E00E944812812F74
:104960000E9413128EEE90E00E9448128DE896E0AD
:104970000E94B7158BEE90E00E9448121F5F123024
:1049800009F46DC1DFCF911172CE11E001C010E0CA
:10499000BE01635F7F4FCE0141960E94E31D8111EE
:1049A00003C062E0F62E5BC1E98981E08E0F898B3E
:1049B000F0E0E357F94F90819D3309F048C111238E
:1049C00061F1482F50E0282F30E0D901A357B94FAB
:1049D0009C91241B350BF901E357F94F90838F5FAE
:1049E0009C919111F0CF898B0E944D1781112AC1A2
:1049F0006D857E858F8598890E94FA2A0E94B2284B
:104A0000F1E56F9FC001112440E550E06DE876E0CC
:104A10009D5F0E948E04F12C22C1BE016F5F7F4F0B
:104A2000CE0141960E94E31D882309F4BACFE9899B
:104A3000F0E0E357F94F8081811109C189809A80A4
:104A4000AB80BC806D857E858F8598890E94B22859
:104A5000062F20E030E0A901C501B4010E943428EE
:104A600087FDF2C0043608F452C08CE9800F90E054
:104A7000833008F043C0082F10E0000F111F000F13
:104A8000111F9230C9F0933069F1913021F0F80193
:104A9000E855FA4F2EC00C541A4F20E030E040E7A2
:104AA00052E4C501B4010E94232AD8016D937D937D
:104AB0008D939C931397C0C000541A4F20E030E0B0
:104AC00040E752E4C501B4010E94232A20E030E00F
:104AD00040E752E40E94232AF801608371838283B5
:104AE0009383AAC0F801E453FA4FB7FAB094B7F829
:104AF000B09480829182A282B3829EC09F5F8A30EE
:104B000008F4A5C0943009F4A2C08A50B1CFC50101
:104B1000B4010E94FA2A0E94B228802F90E08C31C2
:104B2000910508F094C0FC01EC5CFF4F0C943A2B0B
:104B3000633008F48FC06093D8057EC06093DB05B6
:104B40007BC06093D90502C06093DA050E947C0D9A
:104B500073C08091E505662311F0846001C08B7FEE
:104B60008093E50569C08091E505662311F08064B6
:104B7000F7CF8F7BF5CF8091E505662311F0806834
:104B8000EFCF8F77EDCF6093DC058092DD059092BB
:104B9000DE05A092DF05B092E0054EC08092E105EF
:104BA0009092E205A092E305B092E40545C08091A1
:104BB000E505662311F08160D3CF8E7FD1CF809140
:104BC000E505662311F08260CBCF8D7FC9CF809140
:104BD000E505662321F084FF40C08062C1CF8F7D50
:104BE000BFCF8091E505662311F08061B9CF8F7C3E
:104BF000B7CF6093E60520C08092E7059092E80564
:104C0000A092E905B092EA0517C08092EB05909258
:104C1000EC05A092ED05B092EE050EC070E0709329
:104C2000F0056093EF0508C08092F1059092F205BF
:104C3000A092F305B092F4050E942A1010C045E03E
:104C4000F42E0DC0F82E0BC034E0F32E08C023E084
:104C5000F22E05C096E0F92E02C08AE0F82E8F2DC4
:104C60000E948C13D3CC8091F605813021F489E029
:104C70000E94D310CBCC0E944D17F2CF813208F4A2
:104C8000A5CC8F3209F4A2CC8832B1F00F3428F0D1
:104C90008BE00E94D31000E099CC202F30E0E1E0BF
:104CA000E00F9FE9980FD901A357B94F9A3108F443
:104CB00080528C930E2F8ACC11E088CC87E00E9422
:104CC000D3108AE08093D80589E18093DB051092A8
:104CD000D90586E08093DA0583E08093DC058AE0DD
:104CE00097EDA3EABCE38093DD059093DE05A093E6
:104CF000DF05B093E0058FE692E1A3E0BBE380938C
:104D0000E1059093E205A093E305B093E4051092CA
:104D1000E60580E090E0A8ECB1E48093E70590938D
:104D2000E805A093E905B093EA0580E090E0AAEFDA
:104D3000B3E48093EB059093EC05A093ED05B0935D
:104D4000EE058AEF90E09093F0058093EF0580E008
:104D500090E0A0E8BFE38093F1059093F205A09363
:104D6000F305B093F40582E08093E50584EE98E3C3
:104D7000AEE0B1E48093A8059093A905A093AA059D
:104D8000B093AB058093AC059093AD05A093AE05B1
:104D9000B093AF058093B0059093B105A093B20591
:104DA000B093B30580E090ECA8E2B6E48093B4053C
:104DB0009093B505A093B605B093B7058093B80559
:104DC0009093B905A093BA05B093BB058093BC0539
:104DD0009093BD05A093BE05B093BF0580E094E31A
:104DE000AEE1B9E48093C0059093C105A093C205DC
:104DF000B093C3058093C4059093C505A093C605E1
:104E0000B093C7058093C8059093C905A093CA05C0
:104E1000B093CB0580E090E0A7E8B4EC8093CC059C
:104E20009093CD05A093CE05B093CF058093D00588
:104E30009093D105A093D205B093D3058093D40568
:104E40009093D505A093D605B093D7050E942A105C
:104E500060E080E093E00E946C0460E081E593E014
:104E60000E946C0460E08EEA93E00E946C040E9451
:104E70005712F2CA8093E00408958F929F92AF92E6
:104E8000BF92EF92FF920F931F93CF938AE692E027
:104E90000E94481287E0E82E86E0F82E08EA15E026
:104EA000C0E0F70161917191819191917F01F801C9
:104EB00081909190A190B1908F010E94E328A5016B
:104EC00094010E9439280E940412C23021F088E621
:104ED00092E00E944812CF5FC33019F784E692E057
:104EE000CF911F910F91FF90EF90BF90AF909F9047
:104EF0008F900C944812BB274A3031F4992322F446
:104F0000BDE2909581959F4F0C948727BB27FB01AD
:104F10005527AA27880F991FAA1FA41710F0A41BB2
:104F200083955051B9F7A05DAA3308F0A95DA1930C
:104F3000009779F7B111B1931192CB010C94A0278E
:104F4000DC01FC01672F71917723E1F7329704C0F0
:104F50007C916D9370836291AE17BF07C8F308957B
:104F60005058BB27AA270E94C8270C9499290E9451
:104F70008B2938F00E94922920F039F49F3F19F4D0
:104F800026F40C9488290EF4E095E7FB0C9459293B
:104F9000E92F0E94AA2958F3BA17620773078407FA
:104FA000950720F079F4A6F50C94E4290EF4E09529
:104FB0000B2EBA2FA02D0B01B90190010C01CA01D3
:104FC000A0011124FF27591B99F0593F50F4503E7E
:104FD00068F11A16F040A22F232F342F4427585F70
:104FE000F3CF469537952795A795F0405395C9F788
:104FF0007EF41F16BA0B620B730B840BBAF0915040
:10500000A1F0FF0FBB1F661F771F881FC2F70EC0DE
:10501000BA0F621F731F841F48F4879577956795B1
:10502000B795F7959E3F08F0B0CF9395880F08F09D
:105030009927EE0F9795879508950E94CC2990F0B7
:105040009F3748F4911116F40C94E52960E070E064
:1050500080E89FE3089526F01B16611D711D811DD8
:105060000C945F290C947A290E94352908F481E078
:1050700008950E944D280C9499290E94922958F075
:105080000E948B2940F029F45F3F29F00C945929A4
:1050900051110C94E5290C9488290E94AA2968F3DF
:1050A0009923B1F3552391F3951B550BBB27AA27E1
:1050B00062177307840738F09F5F5F4F220F331F1B
:1050C000441FAA1FA9F335D00E2E3AF0E0E832D0E3
:1050D00091505040E695001CCAF72BD0FE2F29D0E6
:1050E000660F771F881FBB1F261737074807AB07B8
:1050F000B0E809F0BB0B802DBF01FF2793585F4F2D
:105100003AF09E3F510578F00C9459290C94E5290A
:105110005F3FE4F3983ED4F3869577956795B7950E
:10512000F7959F5FC9F7880F911D9695879597F919
:105130000895E1E0660F771F881FBB1F6217730792
:105140008407BA0720F0621B730B840BBA0BEE1FA7
:1051500088F7E09508950E94B2286894B1110C94E4
:10516000E52908950E94B22988F09F5798F0B92F39
:105170009927B751B0F0E1F0660F771F881F991F8C
:105180001AF0BA95C9F714C0B13091F00E94E42921
:10519000B1E008950C94E429672F782F8827B85F31
:1051A00039F0B93FCCF3869577956795B395D9F7E4
:1051B0003EF490958095709561957F4F8F4F9F4FEE
:1051C0000895E89409C097FB3EF4909580957095FA
:1051D00061957F4F8F4F9F4F9923A9F0F92F96E943
:1051E000BB279395F695879577956795B795F111B8
:1051F000F8CFFAF4BB0F11F460FF1BC06F5F7F4F55
:105200008F4F9F4F16C0882311F096E911C0772366
:1052100021F09EE8872F762F05C0662371F096E86F
:10522000862F70E060E02AF09A95660F771F881F3E
:10523000DAF7880F9695879597F908950E94CC29FB
:1052400090F09F3748F4911116F00C94E52960E036
:1052500070E080E89FEB089526F41B16611D711D18
:10526000811D0C945F290C947A29990F0008550F21
:10527000AA0BE0E8FEEF16161706E807F907C0F0DC
:1052800012161306E407F50798F0621B730B840BE4
:10529000950B39F40A2661F0232B242B252B21F4BE
:1052A00008950A2609F4A140A6958FEF811D811D5E
:1052B000089597F99F6780E870E060E0089588237B
:1052C00071F4772321F09850872B762F07C066233F
:1052D00011F499270DC09051862B70E060E02AF000
:1052E0009A95660F771F881FDAF7880F969587952E
:1052F00097F908959F3F31F0915020F48795779565
:105300006795B795880F911D9695879597F908959C
:105310009FEF80EC089500240A94161617061806CD
:105320000906089500240A941216130614060506A9
:105330000895092E0394000C11F4882352F0BB0F3A
:1053400040F4BF2B11F460FF04C06F5F7F4F8F4F9D
:105350009F4F089557FD9058440F551F59F05F3FD8
:1053600071F04795880F97FB991F61F09F3F79F087
:1053700087950895121613061406551FF2CF469509
:10538000F1DF08C0161617061806991FF1CF86958B
:1053900071056105089408950E94B229A0F0BEE746
:1053A000B91788F4BB279F3860F41616B11D672F14
:1053B000782F8827985FF7CF869577956795B11DE9
:1053C00093959639C8F30895E894BB276627772705
:1053D000CB0197F908950E94352908F48FEF0895BD
:1053E0000E94B22958F19E5760F19851A0F0E9F05F
:1053F000983020F5092E9927660F771F881F991F6F
:105400000A94D1F712C0062E672F782F8827985F4D
:1054100011F4000C07C0993FB4F386957795679512
:105420009395D9F7611D711D811D3EF4909580956E
:10543000709561957F4F8F4F9F4F089568940C949E
:10544000E5290C94E4290E94362A0C9499290E949B
:105450008B2938F00E94922920F0952311F00C94AA
:1054600059290C94882911240C94E5290E94AA2911
:1054700070F3959FC1F3950F50E0551F629FF001A7
:10548000729FBB27F00DB11D639FAA27F00DB11DC0
:10549000AA1F649F6627B00DA11D661F829F222749
:1054A000B00DA11D621F739FB00DA11D621F839FD0
:1054B000A00D611D221F749F3327A00D611D231FA6
:1054C000849F600D211D822F762F6A2F11249F57F4
:1054D00050409AF0F1F088234AF0EE0FFF1FBB1FF7
:1054E000661F771F881F91505040A9F79E3F5105B6
:1054F00080F00C9459290C94E5295F3FE4F3983E21
:10550000D4F3869577956795B795F795E7959F5F5F
:10551000C1F7FE2B880F911D9695879597F90895F1
:105520000E94B229E8F09E37E8F09639B8F49E3828
:1055300048F4672F782F8827985FF9CF869577955D
:10554000679593959539D0F3B62FB1706B0F711D98
:10555000811D20F487957795679593950C945F2925
:105560000C947A290C94E52919F416F40C948829E2
:105570000C947A290E94B229B8F39923C9F3B6F39F
:105580009F57550B87FF0E94052B0024A0E640EA99
:10559000900180585695979528F4805C660F771F88
:1055A000881F20F026173707480730F4621B730B5B
:1055B000840B202931294A2BA6951794079420257E
:1055C00031254A2758F7660F771F881F20F02617C6
:1055D0003707480730F4620B730B840B200D311D25
:1055E000411DA09581F7B901842F9158880F969598
:1055F000879508950E94CC2930F09F3710F40C94C1
:10560000E5290C945F290C947A2991505040660F3B
:10561000771F881FD2F70895991B79E004C0991F5E
:10562000961708F0961B881F7A95C9F780950895FC
:10563000A1E21A2EAA1BBB1BFD010DC0AA1FBB1F96
:10564000EE1FFF1FA217B307E407F50720F0A21B08
:10565000B30BE40BF50B661F771F881F991F1A9475
:1056600069F760957095809590959B01AC01BD019F
:10567000CF010895EE0FFF1F0590F491E02D0994DE
:105680000E944B2BA59F900DB49F900DA49F800D61
:10569000911D11240895A29FB001B39FC001A39F43
:1056A000700D811D1124911DB29F700D811D11245B
:0856B000911D0895F894FFCF4D
:0856B800040810200D0A000097
:00000001FF
